:1000000087C10000A6C100000C94AE19A2C1000077
:10001000A0C100009EC100009CC100009AC1000068
:1000200098C1000096C1000094C1000092C1000078
:1000300090C100008EC100000C94711B0C949E1B9B
:100040000C94CB1B0C94F81B0C94251C0C94521C88
:100050000C947F1C0C94AC1C0C94D91C0C94061DA5
:1000600078C1000076C1000074C1000072C10000B8
:1000700070C100006EC100006CC100006AC10000C8
:1000800068C1000066C1000064C1000062C10000D8
:1000900060C100005EC100005CC100005AC10000E8
:1000A00058C1000056C1000054C1000052C10000F8
:1000B00050C100004EC100004CC100000C94F51E60
:1000C0000C94221F0C944F1F0C947C1F0C94A91F9E
:1000D0000C94D61F0C9403200C9430200C945D20BB
:1000E0000C948A2036C1000034C1000032C10000E7
:1000F00030C100002EC100002CC100002AC1000048
:1001000028C1000026C1000024C1000022C1000057
:1001100020C100001EC100001CC100001AC1000067
:1001200018C1000016C1000014C1000012C1000077
:1001300010C100000C94331D0C94601D0C948D1D97
:100140000C94BA1D0C94E71D0C94141E0C94411EC3
:100150000C946E1E0C949B1E0C94C81EFAC00000DA
:10016000F8C00000F6C00000F4C00000F2C00000BB
:10017000F0C00000EEC00000ECC00000EAC00000CB
:10018000E8C00000E6C00000E4C00000E2C00000DB
:10019000E0C00000DEC00000DCC00000DAC00000EB
:1001A000D8C00000D6C00000D4C00000D2C00000FB
:1001B0000C94B7200C94E4200C9411210C943E2153
:1001C0000C946B210C949821C4C00000C2C00000A4
:1001D000C0C00000BEC00000BCC00000BAC000002B
:1001E000B8C00000B6C00000B4C00000B2C000003B
:1001F000B0C000000C9439280C94FC28430E5D0E0E
:10020000770E860EA20EC50ED50EF00E070F070F45
:100210008F0E990E7B1199110612A71106127211F9
:100220008411061206120612061206124F11061249
:1002300006120612061206120612BD110612061248
:10024000E21150140C168C140C160C16CD140C164E
:100250000C160C160C160C160C160C160C160C168E
:100260000C160C154D158E15CD15E9183819EF180B
:10027000381938190119381938193819381938192D
:1002800038193819381938193819F518FB1801199F
:1002900001193F242D2430243324362439243C24CE
:1002A000C1E3E4C5E7E8E9EACBCCCDCECFAF262762
:1002B00028290708090A0B0C0D0E0F10111314152D
:1002C000161718191AA080E4E6E7E8E9EACBCCCDC6
:1002D000AD47484929909193942F30310F10111256
:1002E0001314151718191A1B1C1DC0C18082838492
:1002F000408600010203042705070891090B0C0D35
:100300000E0F1011121314151617191A1B1C1D00AD
:1003100011241FBECFEFCDBFDFE5DEBF00E00CBF75
:1003200010E2A0E0B0E2EAE1F9E500E00BBF02C0B4
:1003300007900D92A83AB107D9F729E5A8EAB0E2EB
:1003400001C01D92A932B207E1F70E94960C0C94ED
:100350008B2C56CE0E9449192091AC202223D9F033
:1003600040911E5930E02091AC20642F732F0E94E1
:10037000FA29FB018FEF9FEF642F732F0E94FA2958
:1003800030E0629FC001639F900D729F900D112419
:100390008E0F9F1F089560911E5970E00E94FA29E8
:1003A000CB0108950E944E190E9478191092A8203E
:1003B0001092A9201092AA201092AB201092AD208A
:1003C0001092AE200C947B190E9463191092AC20FD
:1003D0000895E8DFF9DF0C946E190F931F93CF9304
:1003E000DF93EC010E9449198C01BE0180E090E08E
:1003F00020911E5930E040E050E00E94EB29DC01E2
:10040000CB01A80160E070E0480F591F6A1F7B1FF5
:100410004093A8205093A9206093AA207093AB200A
:100420004091A8205091A9206091AA207091AB2002
:10043000AB01662777274093A8205093A9206093AB
:10044000AA207093AB204091A8205091A9206091E0
:10045000AA207091AB20411551056105710591F0FD
:100460004091A8205091A9206091AA207091AB20C2
:100470000196080F191F0093AD201093AE200E9423
:100480004E1908C0080F191F0093AD201093AE201D
:100490000E9458198091AD209091AE20843691052C
:1004A00030F48C599F4F8093AD209093AE20809173
:1004B000AD209091AE200E947319DF91CF911F91D2
:1004C0000F9108951092AC200E947D1980931E59BF
:1004D00008958091A8209091A920A091AA20B09180
:1004E000AB200097A105B105C9F08091A82090919B
:1004F000A920A091AA20B091AB200197A109B10930
:100500008093A8209093A920A093AA20B093AB2019
:100510000097A105B10511F40E9458198091AC20F3
:100520008F5F8093AC2090911E59891748F01092EC
:10053000AC20E091AF20F091B020309709F01995F0
:1005400008950E944E19E091B120F091B2203097A9
:1005500009F0199508958093AF209093B0200895E5
:100560008093B1209093B2200895CF93DF9300D071
:100570001F92CDB7DEB78FEF80937000809371002C
:100580008093720080937300809374008093750051
:100590008093760064E081E490E00E94191B6CE196
:1005A00070E082E00E941F1B8A836DE170E082E0B0
:1005B0000E941F1B898389819A81019621F480E41E
:1005C00093E289839A8389819A818B839C83E0E675
:1005D000F0E082838C8183838FB7F894E0E5F0E0CC
:1005E0009081926090838FBF818181FFFDCF8FB713
:1005F000F894A0E5B0E016969C911697997F169610
:100600009C931697E0E6F0E090E895839BEB968349
:1006100016969C911697946016969C939081916083
:1006200090838FBF61E080E490E00E94191B8FB738
:10063000F894E0E5F0E090819E7F90838FBF249650
:10064000CDBFDEBFDF91CF9108952FB7F894FC01A5
:10065000E059FF4F60958081682360832FBF089524
:100660002FB7F894FC01E059FF4F8081682B60831D
:100670002FBF0895863011F468E101C060E0E0E525
:10068000F0E0818181FD24C08FB7F8949081926061
:1006900090838FBF818181FFFDCF8FB7F894A0E554
:1006A000B0E016969C911697997F16969C93169794
:1006B000E0E6F0E090E895839BEB968316969C919C
:1006C0001697946016969C939081916090838FBF4B
:1006D000636084E490E00E94191B60E480E090E095
:1006E000B4CF0895CF93DF93FC01709620E030E003
:1006F000C62FD0E0DE01022E02C0B595A7950A9460
:10070000E2F7A0FD50832F5F3F4F3196283031052F
:1007100089F740FF0AC041FF03C0FC01658302C0A6
:10072000FC016683FC01618302C0FC016283DF91EE
:10073000CF910895CF93DF93EC01C03C28E0D2071E
:1007400029F468E083E090E080DF10C0803C29E07D
:10075000920729F468E084E090E077DF07C0803CEE
:100760009A4021F468E085E090E06FDF8881806145
:100770008883DF91CF910895FF920F931F93CF93BA
:10078000DF93EC01F42EB901A80100E016E32EE698
:1007900031E00E94291B88234CF088819F2D990FFE
:1007A000990F9C70837FF92EF82AF882DF91CF9100
:1007B0001F910F91FF900895FC01DB01460F571F19
:1007C00005C08D91838382818823ECF7A417B50738
:1007D000C1F780E090E00895FC01DB01411551056F
:1007E00061F0460F571F9FEF938382818823ECF7B8
:1007F00083818D93A417B507B9F780E090E0089541
:10080000FB018081E82FE695E695E69540E2E49FBE
:10081000F0011124FA5F877021E030E0A90102C0E5
:10082000440F551F8A95E2F746830895FB018081A6
:10083000E82FE695E695E69540E2E49FF001112465
:10084000FA5F877021E030E0A90102C0440F551F14
:100850008A95E2F7458308958091C8258150809359
:10086000C825089580E0089580E0089508951092C5
:10087000C8251092D4251092D52581EA8093CA25E7
:1008800080E28093CB251092CC251092CD2510923A
:10089000CE251092CF2582E090E08093D0259093D2
:1008A000D1251092D2251092D32580E092ECA1E0C0
:1008B000B0E08093D6259093D725A093D825B09308
:1008C000D9251092DA251092DB2588E08093DC256B
:1008D00080E0DAD7882329F09091C8259F5F909314
:1008E000C8250895FF920F931F93CF93DF938091B4
:1008F000B62081119BC00E947B26882351F0C091B5
:10090000B720D091B8200E948826C817D90759F47B
:100910008DC0C091B720D091B8200E948326C817FF
:10092000D90709F483C0DFB7F894C091B920EC2F40
:10093000F0E0EE0FFF1FE654FF4D80819181892B7F
:1009400009F58091B3209091B42001968093B32053
:100950009093B4200E947B26811107C08091B32020
:100960009091B4208436910558F00E947B2688230C
:1009700049F08091B3209091B4208032934010F4DC
:10098000DFBF54C01092B3201092B4208091B520E4
:10099000811106C081E0C11180E08093B92004C0BC
:1009A00081E0C11180E0C82F81E08093B620DFBFD5
:1009B000D0E0FE01EE0FFF1FE654FF4DFF24F3943D
:1009C000808191818034914009F4F12CFF2091F0D5
:1009D0000E947B26882339F00E9488268093B720C6
:1009E0009093B8200BC00E9483268093B7209093E9
:1009F000B82004C01092B7201092B820FE01EE0F6C
:100A0000FF1FE654FF4D2081318180E491E0C89FB3
:100A1000A001C99F500DD89F500D112442545F4D25
:100A20000CE115E06F2D81E80E943A27DF91CF910C
:100A30001F910F91FF900895892BA9F42091B9205F
:100A400081E090E0222311F080E090E0FC01EE0FC5
:100A5000FF1FE654FF4D108211821092B5201092B4
:100A6000B62080E03FCF089580E03CCF089580918C
:100A7000C72581508093C7258091C72509D710923B
:100A8000C625089580910E598823ECF48076803233
:100A900009F043C080910F59813209F040C0809124
:100AA0001459909115590797E1F586ED95E28093D9
:100AB00016599093175987E090E0809318599093B6
:100AC000195981E008958076803269F580910F5937
:100AD000803219F08232D9F028C080911459909157
:100AE0001559079721F586E394E080931A5990935E
:100AF0001B5986ED95E2809316599093175987E01C
:100B000090E0809318599093195981E0089580914D
:100B100010598170C0D681E0089580E0089580E08A
:100B2000089580E0089580E0089580E0089580E0D1
:100B300008954FB7F89420913F2330914023E091DE
:100B40004123F0E0EE0FFF1FEE5BFC4D80819181B1
:100B5000821B930B4FBF0895ECDF21E0892B09F432
:100B600020E0822F08950F931F93CF93DF934FB709
:100B7000F8945091412380913E23811110C020911F
:100B80003F2330914023C52FD0E0FE01EE0FFF1F21
:100B9000EE5BFC4D808191812817390718F44FBF17
:100BA00080E024C010923F231092402381E0511135
:100BB00080E08093412381E080933E234FBF80E01B
:100BC000CBDF81116ED680E491E0C89FA001C99F60
:100BD000500DD89F500D11244A5B5C4D0DE216E07C
:100BE00020E431E061E082E00E943A27DF91CF917A
:100BF0001F910F9108951092C7251092B620109260
:100C0000B5201092B9201092BA201092BB201092F9
:100C1000BC201092BD201092B7201092B82080E026
:100C200061DE10923E2310924123109242231092D3
:100C3000432310923F231092402380E094DF8823C7
:100C400059F09091C7259F5F9093C7259091C72534
:100C5000913011F49093C62508950F931F93A42FFC
:100C6000892B39F580914123E1E08111E0E06115A4
:100C70007105A1F4F0E020E431E0E29FB001E39FD0
:100C8000700DF29F700D1124AB014A5B5C4D0DE2BB
:100C900016E061E08A2F0E943A270BC0F0E0EE0FC9
:100CA000FF1FEE5BFC4D6083718310923E2380E05A
:100CB0005ADF1F910F91089580E04ECF0895FF9263
:100CC0000F931F93CF93DF93FF24F3948091DC2540
:100CD000893009F0F12C60E070E0C0E4D1E03FB76A
:100CE000F89480913F2390914023209141233FBF6E
:100CF00030E0F901EE0FFF1FEE5BFC4D40815181AA
:100D00008417950730F08091C6258111E8CF90E0D7
:100D10001DC02C9FF0012D9FF00D3C9FF00D112464
:100D2000E80FF91FEA5BFC4D20818B01022B019635
:100D300080933F239093402380E015DFFF2021F034
:100D4000702F6627F12CCBCF802F912FDF91CF9181
:100D50001F910F91FF90089580E0B1CF08955FB784
:100D6000F8942091B920E22FF0E0EE0FFF1FE65437
:100D7000FF4D8081918141E0211140E0E42FF0E0BE
:100D8000EE0FFF1FE654FF4D20813181803461E07A
:100D9000960789F46091B62061110DC06091B5206D
:100DA000611109C081E08093B5204093B92020E40F
:100DB00031E080E090E05FBF280F391F80E892E0CB
:100DC000821B930B0895CBDF21E0892B09F420E0EF
:100DD000822F0895FF920F931F93CF93DF93F62EE8
:100DE000172F01E08091DC25893009F000E0C0E494
:100DF000D1E080E0E8DF811107C08091C625811134
:100E0000F8CF80E090E028C06FB7F8942091B92027
:100E100030E0F901EE0FFF1FE654FF4D8081918114
:100E2000AC014F5F5F4F408351832C9FF0012D9F9A
:100E3000F00D3C9FF00D11248E0F9F1FFC01E2541A
:100E4000FF4DF0826FBF002329F0F12E110F110B1F
:100E500000E0CFCF81E090E0DF91CF911F910F9123
:100E6000FF900895BC0180E0B5CF08957F928F92E6
:100E70009F92AF92BF92CF92DF92EF92FF920F9329
:100E80001F93CF93DF936B018A018091DC2589301A
:100E900011F4000F111F6894AA24A6F8BB24B39480
:100EA00080E091DF811107C08091C6258111F8CFC4
:100EB000802F912F35C07FB6F8948090B920912C67
:100EC000F401EE0FFF1FE654FF4DE080F180C501F5
:100ED0008E199F09E8018017910708F4EC018A9C9C
:100EE000C0018B9C900D9A9C900D11248E0D9F1D1E
:100EF000AE01B60182549F4D0E94CE2AF401EE0F3E
:100F0000FF1FE654FF4DEC0EFD1EE082F1827FBE16
:100F1000CC0EDD1E0C1B1D0B09F0C2CF80E090E053
:100F2000DF91CF911F910F91FF90EF90DF90CF90C5
:100F3000BF90AF909F908F907F900895AB01BC01C0
:100F400080E094CF0895E091E225F091E3250190AF
:100F5000F081E02D228133812E0F3F1FFC01408163
:100F6000E40FF11DE217F307A0F481818430A1F0B2
:100F7000861306C014C081818430A1F08617A9F0C1
:100F80008081E80FF11DE217F307A8F380E090E0FD
:100F9000089580E090E0089580E090E008958E2F1D
:100FA0009F2F089580E090E008958E2F9F2F089541
:100FB000809110598F770C947D2608959091E425A7
:100FC000992381F1E091E225F091E3250190F081F0
:100FD000E02D9481891740F5E093E025F093E12519
:100FE000228133812E0F3F1FE217F307F8F491811E
:100FF000943061F49281981309C09381961306C0CE
:10100000E093E025F093E12581E008959081E90FD8
:10101000F11DE217F30758F3E093E025F093E12583
:1010200080E0089580E0089580E0089580E00895CC
:10103000FF920F931F93CF93DF93C82F60E0BEDF23
:10104000F82E882381F1A091E225B091E325EC2FC1
:10105000F0E0EE0FFF1F12962D913C911397E20FD7
:10106000F31F00811181D8011696ED91FC9117971D
:101070001995682F8C2FA2DFF82E8823A1F0C0913C
:10108000E025D091E12565E0CE015DDFEC01009720
:1010900021F08A810E94FB27F6CFD8011296ED91AC
:1010A000FC91139719958F2DDF91CF911F910F917F
:1010B000FF9008951F93CF93DF93182F7FDF88232E
:1010C00041F1C091E025D091E12565E0CE013BDF03
:1010D000EC01009749F04C815D816B818A810E940F
:1010E00094268111F2CF15C0A091E225B091E3259D
:1010F000812F90E0880F991F1296ED91FC91139724
:10110000E80FF91F0190F081E02D0190F081E02DB2
:101110001995DF91CF911F9108950C94072608959A
:10112000CF938091E4258823C1F0E091E225F091EE
:10113000E3250190F081E02D8481882371F0C0E0E7
:101140008C2F76DFCF5FE091E225F091E3250190CF
:10115000F081E02D8481C81798F31092E42581E096
:1011600090E08093E5259093E625CF910895CF9365
:101170008091E425882341F1E091E225F091E32577
:10118000A081B18114968C918823F1F0C0E08C2F5E
:1011900090E0880F991F0280F381E02DE80FF91F7E
:1011A0000190F081E02D0084F185E02D309709F069
:1011B0001995CF5FE091E225F091E325A081B181FF
:1011C00014968C91C81718F3CF910895EF92FF925F
:1011D0000F931F93CF93DF931092185910921959C0
:1011E00010921A5910921B5910921C5910921D59A5
:1011F00020910E5922230CF084C2809114599091B1
:101200001559009709F082C278C22F7109F0A3C066
:1012100030910F59363089F0383009F490C03111CF
:101220009AC0029741F462E070E085EE95E20E9478
:101230008B2601E0E5C100E0E3C120911059309117
:101240001159832F99278230910581F083309105C0
:1012500079F1019709F06BC080911E2090911F20B9
:10126000DC016C9170E00E948B2650C0E0911E2042
:10127000F0911F208189281708F05BC0C9019927C8
:10128000880F991F880F991FE0912020F09121204D
:10129000E80FF91F80819181FC01628173810E94B6
:1012A0008B26E0911659F091175982E081832EC068
:1012B00033272130310561F020F02230310561F013
:1012C0003AC064E070E082EA90E20E948B261EC081
:1012D00088E990E229E003C084E990E223E0382F16
:1012E000A2E8B0E2E82FF92F819190E08D939D93D1
:1012F0008E2F831B8217C0F3220F62E0620F609370
:10130000802070E080E890E20E948B268091145942
:1013100090911559209118593091195982179307B6
:1013200060F4809318599093195901E069C100E065
:1013300067C100E065C100E063C101E061C10197E0
:1013400041F461E070E084EE95E20E948B2601E0BA
:1013500057C100E055C1213009F040C030910F590C
:101360003A30E1F50197A1F58091E425882391F1C8
:10137000C0911259D0911359E090E225F090E325E5
:10138000D701ED91FC918481C81730F560E08C2F76
:1013900015DE082F882309F433C1CE019927880F61
:1013A000991FD7011296ED91FC911397E80FF91F41
:1013B0000190F081E02D0680F781E02D1995809352
:1013C000DF2561E070E08FED95E20E948B2618C169
:1013D00000E016C100E014C100E012C1223009F0A3
:1013E00011C120910F59211106C1029789F48091F2
:1013F00012590E94F52690E08093DD259093DE251A
:1014000062E070E08DED95E20E948B2601E0F8C06D
:1014100000E0F6C02F7109F091C080910F59833020
:1014200009F4EBC018F48130B1F088C0853019F0B0
:10143000893061F183C08091145990911559892B9D
:1014400041F488ED97E080931A5990931B5901E07D
:10145000D7C000E0D5C08091145990911559892BBF
:1014600089F48091105990911159019769F48091F4
:10147000E5259091E6258D7F8093E5259093E625DF
:1014800001E0BEC000E0BCC000E0BAC080911459C9
:1014900090911559892B09F047C00E948026882316
:1014A00009F444C020911059309111593327E0912B
:1014B0001E20F0911F20818990E082179307C0F1D0
:1014C0002FDE80911059909111598093E425882343
:1014D00089F199278150904C880F991F880F991F87
:1014E000E0912020F0912120E80FF91FE093E22500
:1014F000F093E3250190F081E02D84818823E1F0D1
:10150000C0E060E08C2FD6DD082F882309F478C076
:10151000CF5FE091E225F091E3250190F081E02D8D
:101520008481C81770F36CC000E06AC000E068C036
:1015300000E066C001E064C001E062C0213009F54E
:1015400080910F598B30E9F480911459909115597D
:10155000892B99F48091E425882389F0C091125950
:10156000D09110598C2F64DD082F882309F448C0CE
:101570006D2F8C2F9FDD082F43C000E041C000E09D
:101580003FC0223009F03EC080910F59813019F0E0
:101590008330B9F034C08091145990911559892B3A
:1015A00061F48091105990911159892B41F48091E7
:1015B00012590E941027082F23C000E021C000E02C
:1015C0001FC08091145990911559892B81F48091F5
:1015D000105990911159892B61F4C2E1D9E58881A4
:1015E0000E94C12788810E941828082F09C000E0A6
:1015F00007C000E005C000E003C000E001C000E05B
:10160000011189C080910E598F718130C1F580918F
:10161000E4258823A1F1C0911259D091135900916A
:10162000E2251091E325D801ED91FC918481C81742
:1016300030F560E08C2FC2DC882309F1CE019927B8
:10164000880F991FD8011296ED91FC911397E80F1E
:10165000F91F00811181D8011696ED91FC91179721
:101660001995682F8C2FAADC882349F0D80114968D
:10167000ED91FC9115971995082F81114CC080911F
:101680000E598F718230D9F58091E425882389F134
:10169000E091E225F091E325A081B18114968C912F
:1016A000882349F110E0212F30E0220F331F028000
:1016B000F381E02DE20FF31FC081D181EE81FF8124
:1016C0001995682F812F7ADC082F882321F1EC816E
:1016D000FD811995082F81111EC01F5FE091E22541
:1016E000F091E325A081B18114968C911817D8F25E
:1016F00012C000E010C000E00EC000E00CC000E02E
:101700000AC0822F807609F07DCF84CE322F3076CA
:1017100009F078CF7ACD802FDF91CF911F910F9173
:10172000FF90EF900895CF93DF931F92CDB7DEB770
:101730008091CF589091D058E091CB58F091CC58EF
:10174000BE016F5F7F4F19958981992787FD90951D
:101750000F90DF91CF9108959091E725992381F023
:10176000862F992787FD90957DDB21E030E0892B3E
:1017700011F020E030E088279927821B930B089511
:1017800080E090E00895CF93DF93EB018091E7250F
:10179000811102C0188202C0DFDA8883DF91CF9105
:1017A000089581E08093E72508951092E725089534
:1017B0001092CF581092D0588CEA9BE08093CD586D
:1017C0009093CE5883EC9BE08093CB589093CC5869
:1017D000A4DC63E97BE080EF9BE00C94DE2A0895B3
:1017E000682F8091CF589091D058E091CD58F091CA
:1017F000CE58199599231CF48FEF9FEF089581E03F
:1018000090E00895D5CF0895CF93DF93C62FD0E011
:10181000BE0194DB9C2F981B892FDF91CF910895F7
:10182000FC018091E925882369F18C3980F0809151
:10183000EA258093EB258CE98093E9256C3950F0FB
:101840006CE99091EB258091E925262F07C086173A
:1018500008F4682F6111F5CF862F0895A92FB0E005
:10186000A451BA4D3C9131939F5F21509C3909F4AA
:1018700090E02111F3CF9093EB25861B8093E9250F
:10188000862F089580E0089581E08093E8250895EB
:101890001092E8250895882311F083CF089585CF0D
:1018A00008958091E825811118C0089555DAF894BB
:1018B0009091E9259F5F9093E9259091EA25E92F82
:1018C000F0E0E451FA4D80839B3919F41092EA2537
:1018D00003C09F5F9093EA257894EED98111E6CFFB
:1018E0000895CF93DF93CDB7DEB72897CDBFDEBF86
:1018F00080E1E0E0F6E0868336D6811126D080E2F2
:10190000E0E0F6E0858380E00E94C31881E08983EF
:10191000BE016F5F7F4F81E50E949C166CD067D33C
:101920002896CDBFDEBFDF91CF91089587E0E0EA32
:10193000F0E082830E94B5020E94E01A63DF80E03B
:1019400090E0CFDF789486D0FECF24E130E07CEFCA
:101950006FEF53E040E0872F962FA52FB42F01970C
:10196000A109B1090097A105B105C9F721503109B5
:101970002115310581F708958FE062D382FF14C0ED
:10198000409188265091892660918A2670918B26F5
:101990004F5F5F4F6F4F7F4F40938826509389264C
:1019A00060938A2670938B2683FF03C081E0809327
:1019B00090260895209192262035D1F030919326DB
:1019C000822F90E0830F911D60E570E00E940E2A47
:1019D0002F5F2093922621E9289FF001299FF00D87
:1019E0001124EA5DF84D81E081938E2F9F2F089599
:1019F00080E090E0089581E0809323270895EF929E
:101A0000FF920F931F93CF93DF93E82E8B01F42E59
:101A1000D1DFFC010097B1F082E08F0D808382E07E
:101A20008183EF012396E282FF2031F04F2D50E0B9
:101A3000B801CE010E94CE2ACF0DD11D84E088834B
:101A400081E001C080E0DF91CF911F910F91FF9065
:101A5000EF900895CF92DF92EF92FF920F931F9332
:101A6000CF93DF93CDB7DEB7C95CD109CDBFDEBF61
:101A700080919026882309F481C01092902691D2FB
:101A800000918C2610918D2620918E2630918F26E4
:101A90006B017C01C01AD10AE20AF30A41EAC416BA
:101AA00046E8D40641E0E406F10460F060938C2639
:101AB00070938D2680938E2690938F2680E2E0E0AF
:101AC000F6E0878347E060E886E0C3D2811105C075
:101AD00061E0CE010196C3D2FEC161E0CE01875321
:101AE0009F4FBDD2C753DF4F1881C95CD04011232F
:101AF0000CF4F1C18091D1589091D258A091D35853
:101B0000B091D4580196A11DB11D8093D1589093E6
:101B1000D258A093D358B093D4588091A620853042
:101B200041F548DFFC01009709F4D5C10F2EF3E021
:101B3000FF2EF02DF10E175F108382E081838F015D
:101B40000D5F1F4F8DE082836F2DC80188D24091B9
:101B5000D1585091D2586091D3587091D458F8010F
:101B6000EF0DF11D408351836283738384E084838E
:101B700005C061E0CE01019672D2ADC1809195267B
:101B8000811109C0109294266CE886E996E248DE3D
:101B90008093952659C1809123278230E9F018F46B
:101BA000813039F03EC18330C1F1843009F44FC037
:101BB00038C186E794E58093242790932527E09108
:101BC0009426F0E0EA56F94D8081813009F032C167
:101BD00082E0809323272EC1E0919426F0E0EA561C
:101BE000F94D808180932227882369F093E09093B8
:101BF0002327E0912427F09125278193E093242740
:101C0000F093252717C186E794E5809324279093C6
:101C1000252781E0809323270DC1E0919426F0E0F1
:101C2000EA56F94D8081E0912427F0912527819390
:101C3000E0932427F09325278091222781508093D9
:101C400022278111F7C084E080932327F3C0E0911D
:101C50009426F0E0EA56F94D8081843009F0D7C02F
:101C600080917754823009F0D2C080917854482F07
:101C700050E0FA013197EC30F10508F0C1C0E250B4
:101C8000FF4F0C94432A809179548983BE016F5F82
:101C90007F4F80E00E949C16811102C081E001C04C
:101CA00082E0C753DF4F8883C95CD04041E0BE016A
:101CB00067537F4F81E0A3DEAAC080917954898366
:101CC000BE016F5F7F4F84E00E949C16811102C0AD
:101CD00081E001C082E0C753DF4F8883C95CD040F8
:101CE00041E0BE0167537F4F82E089DE90C088ECFF
:101CF00090E0A0E0B0E089839A83AB83BC8344E0AA
:101D0000BE016F5F7F4F83E07ADE81C089E3898304
:101D100041E0BE016F5F7F4F84E071DE78C08CE1EF
:101D20008FD1898341E0BE016F5F7F4F8BE067DE1B
:101D30006EC082E2898341E0BE016F5F7F4F8CE01D
:101D40005EDE65C081E0898380E2E0E0F6E08683C4
:101D500080910759882339F00E942F1886E064D2B9
:101D60008CEB9CE073D141E0BE016F5F7F4F85E05B
:101D700046DE1092D1581092D2581092D358109239
:101D8000D45885E08093A62042C081E0898380E218
:101D9000E0E0F6E0858341E0BE016F5F7F4F86E0C3
:101DA0002EDE86E08093A62032C081E0898380E227
:101DB000E0E0F6E0868380910759882339F00E949D
:101DC0002F1886E031D28CEB9CE040D141E0BE017F
:101DD0006F5F7F4F87E013DE85E08093A62017C0FA
:101DE00081E0898380E2E0E0F6E0858341E0BE01A6
:101DF0006F5F7F4F88E003DE88E08093A62007C0F6
:101E000093E0998341E0BE016F5F7F4FF8DD86E785
:101E100094E5809324279093252781E080932327BE
:101E200009C086E794E5809324279093252781E0D5
:101E300080932327809195268150809395268091C9
:101E400094268F5F8093942680919226882309F4AC
:101E500042C0809193262091912611E9189FC001DC
:101E60001124DC01AA5DB84D11966C916D5F621B67
:101E7000820F911D8A5D984DC7DC609193269091E9
:101E80009126482F50E0169FF0011124EA5DF84D8D
:101E9000218130E02D5F3F4F291B31094217530745
:101EA000B9F46F5F8DEC689F812D11248295869522
:101EB0008695837090E5899F60191124609393261D
:101EC000809192268150809392261092912603C091
:101ED000980F90939126C753DF4FCDBFDEBFDF91A0
:101EE000CF911F910F91FF90EF90DF90CF900895C9
:101EF00080910655882319F081E08093E158089578
:101F0000CF938091D5589091D65801968093D5580B
:101F10009093D658CFB7F894809105558F3FF1F143
:101F200090E0FC01EE0FFF1F9C01220F331F220FD8
:101F3000331F220F331FE20FF31FE952F74A2185A7
:101F400021112CC0FC01EE0FFF1F880F991F880F75
:101F5000991F880F991FE80FF91FE952F74A8081EE
:101F60009181A281B3812091D5583091D6582A17FA
:101F70003B07A1F40E94ED018091055590E0FC0122
:101F8000EE0FFF1F880F991F880F991F880F991F49
:101F9000E80FF91FE952F74A81E08187CFBFCF915F
:101FA00008950F931F93CF93DF93C091D558D0918D
:101FB000D6580E94AA012091D5583091D658C21700
:101FC000D30799F7AE0160E070E0BA0155274427C6
:101FD000A0E0B0E08A019B01082B192B2A2B3B2B98
:101FE000C901B801DF91CF911F910F91089510920F
:101FF00006551092E1581092D5581092D6588FEF8E
:102000008093055580930455809303558093DF5842
:102010001092DB581092DC581092025580E89FE035
:102020000E94AB0288E79FE00E94B0020C9462021B
:10203000089503D080E0089508950C94DF19089561
:102040000C94111A08950C94451A08950C94781A5A
:1020500008950C947D1A08950C948E1A08950C948A
:10206000AC1A0895EF92FF920F931F93CF93DF93D3
:1020700087E095E596D00CE115E5CCE0D5E50F2E8F
:10208000F8E4EF2EF7E5FF2EF02D08831983BE014B
:1020900087E095E58DD005571F4F24960E151F0537
:1020A000A1F7DF91CF911F910F91FF90EF900895CD
:1020B00060E070E087E095E596C008959F92AF924A
:1020C000BF92CF92DF92EF92FF920F931F93CF9325
:1020D000DF936C015B018A019FB6F894DC011496D2
:1020E0008C911497882309F449C0CD91DC91411556
:1020F0005105B9F0209709F444C07E01F8016281CE
:1021000073810190F081E02D888199811995811169
:1021100009C02A813B8121153105A1F17E01E90128
:10212000EDCF7E01209779F1AB2869F5D601ED91CD
:10213000FC911197EC17FD0729F4828193818D930F
:102140009C9305C08A819B81F70182839383D6018A
:1021500012968D919C9113978C179D0721F41296DE
:10216000ED92FC921397F6018481815084838081E3
:102170009181892B41F41282138205C0C0E0D0E026
:1021800002C09E01E9019FBECE01DF91CF911F9158
:102190000F91FF90EF90DF90CF90BF90AF909F9006
:1021A0000895FC0110821182128213821482089514
:1021B000FC018FB7F8949481911103C060837183FF
:1021C00006C0A281B38112966D937C9313976283AC
:1021D0007383DB0112961D921C92139794819F5F6B
:1021E00094838FBF0895AB0160E070E067CF0895DE
:1021F000CF9340E06FE181E02CDF883099F48FE0ED
:102200001FDF69E082E01FDFC3E08FE019DF80FDA0
:1022100009C080E090E00196883A22E09207D9F761
:10222000C15099F7CF910895CF93C82F8091085945
:102230008F3049F5CF3009F4F2C010920C5989E97A
:1022400093E104DFE0E4F6E081E084878185836048
:1022500081879FB7F894789488E0868380910C59A1
:102260008823E1F39FBF8FE0EBDE87E893E1EEDEAA
:1022700068E08EE0E8DEC83011F0C33021F488E079
:1022800080930859CDC08C2F90E0FC013397E73143
:10229000F10508F0BBC0E65FFE4F0C94432A63E0F3
:1022A00082E0D1DE0E94C02AC92F682F8DE2CBDEEA
:1022B0002C2F40E067E08EE2CFDE8FE0C1DE20E130
:1022C00040E06FEF8EE0C8DE88E0E0E4F6E0858372
:1022D00080E090E001968C389105E1F78FE08093E3
:1022E00008599EC080910859883009F48FC068E071
:1022F00082E0A9DE8BC080910859883009F486C03D
:1023000063E082E0A0DE82C080910859883059F0F5
:1023100020F4863009F07AC008C0863131F0893166
:1023200009F074C002C064DF71C069E082E08BDE36
:102330006DC080910859883021F0893009F466C059
:1023400002C056DF63C064E082E07DDE5FC0809142
:102350000859893049F018F4883051F057C0863157
:1023600019F0893109F052C066E082E06CDE4EC09F
:102370003FDF66E082E067DE49C08091085988301F
:1023800069F018F4863079F041C0893019F089314C
:1023900009F03CC066E182E056DE38C029DF66E124
:1023A00082E051DE33C069E082E04DDE40E06FE163
:1023B00081E04FDE80930859893091F566E182E033
:1023C00042DE24C0809108598830E1F018F486304C
:1023D00051F01CC0893019F0863129F017C069E12D
:1023E00082E031DE13C069E082E02DDE40E06FE183
:1023F00081E02FDE80930859893091F469E182E011
:1024000022DE04C0F5DE69E182E01DDE40E06FE11E
:1024100081E01FDE809308598F31C1F301C08FE046
:10242000CF9108950F931F93CF93DF9386E0FCDE47
:102430008630E1F720E047E060E885E10DDEE0E48A
:10244000F6E0018581858C7F818718E0C0E0D0E0CF
:1024500045E060E686E0FDDDCC0FDD1FCC0FDD1F23
:10246000C82B1150A9F783E0DFDE8FE0E9DDE0E45F
:10247000F6E081E084870187CE010E94C32ADF91C4
:10248000CF911F910F910895CF93DF93D82F88E0BC
:10249000E0E4F6E0868320E030E02F5F3F4F203914
:1024A00086E03807D1F781E0E0E4F6E0868320E0BB
:1024B00030E02F5F3F4F28323105D9F781E0E0E46B
:1024C000F6E08583CBE020E030E02F5F3F4F2039FE
:1024D00081E03807D1F740E06FE181E0BADDC1501B
:1024E00009F43DC0883079F7809308599BDF20E0DC
:1024F00044E060E383E0B0DD20E043E068E083E0B7
:10250000ABDD0E94C02AC92F682F8DE29CDD2C2FE5
:1025100040E067E08EE2A0DD80E080D5A0D521E03C
:1025200045E060E28EE298DD21E047E060E88CE083
:1025300093DD21E041E062E084E08EDD68E08EE042
:1025400082DD26E044E060E785E186DDD1117CD3C1
:10255000AED310920D591092E25880E001C085E888
:10256000DF91CF9108952F923F924F925F926F9299
:102570007F928F929F92AF92BF92CF92DF92EF9213
:10258000FF920F931F93CF93DF93CDB7DEB72B97B7
:10259000CDBFDEBF4EDD81119FC080E090E001968F
:1025A000803926E09207D9F7E0E4F6E081E08683FF
:1025B00088E0868380E090E0019688329105E1F71B
:1025C00081E0E0E4F6E0858380E090E001968837E2
:1025D0009105E1F740E06FE181E03BDD8987898586
:1025E00089871AE003C0115009F478C080E090E0B8
:1025F00001968039E1E09E07D9F78CE121DD873033
:1026000091F768E082E01FDD40E06FE181E021DDCD
:102610008830D1F760E08EE016DD88E080930859BD
:1026200081E032DF81115CC048E050E06FEF70E084
:10263000CE0101960E94D72A0F2EFAEE8F2EF8E5D2
:102640009F2EF02D0F2EF2EF6F2EF8E57F2EF02D3E
:1026500008C00E94C02AF80181938F01E615F70592
:10266000C1F7F40110812180328043805480B5810C
:10267000F681FA87F401F781FB87212F322D432D54
:10268000542D652D7B2F8A859F2FA0E00E945C2A08
:1026900061F0A980BA80CB80DC80ED80FE800F8164
:1026A000A8851A2F0E94532A11F48401D2CF87E8FB
:1026B00093E1CCDCE0E4F6E0818583608187D2DCC5
:1026C0008BE8F6DC809348579093495783EE98E562
:1026D00068DDD0D580E005C085E803C085E801C08D
:1026E00085E82B96CDBFDEBFDF91CF911F910F9173
:1026F000FF90EF90DF90CF90BF90AF909F908F9022
:102700007F906F905F904F903F902F9008958FE053
:1027100097DC83FF0DC090910D59913041F486FFF5
:1027200003C081E011C5089580E00EC50895A8C4D6
:1027300008958FE085DC84FF03C081E080930C590D
:1027400008958091015985FD02C08F7303C0819562
:102750008F718195883E44F08C300CF08BE0803E88
:102760004CF088232CF401C087EE8F71806A03C07F
:10277000806801C080EA80930159089585FD02C0F8
:102780008F7303C081958F71819590910259953017
:1027900019F09251923050F4EBE0F0E0E81BF109AF
:1027A00087FDF395E056FD4F849108959091FD5873
:1027B00091110AC0EBE0F0E0E81BF10987FDF39509
:1027C000EB53FD4F84910895EBE0F0E0E81BF10935
:1027D00087FDF395E651FD4F84910895CF93DF93E4
:1027E0008091015985FD02C08F7303C081958F715F
:1027F000819590910259953021F02EEE290F2230CB
:1028000090F42091FD58222311F0233021F48530DB
:10281000DCF084E019C0953011F09231A9F48B30CE
:102820009CF08AE011C0911108C09091FD5891115F
:102830000BC087304CF086E007C09091FD58911195
:1028400003C084300CF083E0803E4CF080324CF4C6
:1028500088231CF48F71806A05C0806803C080EAF9
:1028600001C08FE9C1E0D9E588836BDF888186DF0D
:10287000682F85E0E8DBDF91CF91089590910259B0
:10288000992309F4D6C1CAC19093045990E08431C8
:10289000910508F0C1C1FC01EF5DFE4F0C94432A85
:1028A00020E043E068E08CE0D7DB23E040E063E039
:1028B00086E1D2DB20E044E060E18CE0CDDB80917A
:1028C000FD58811106C020E042E064E08CE0C4DBEA
:1028D00005C021E042E064E08CE0BEDB20E042E0A5
:1028E00064E087E1B9DB8FEF97E0A0E0B0E0809390
:1028F000F2589093F358A093F458B093F55820E011
:1029000040E067E084E1A8DB2091FD5840E06FE102
:1029100088E0A2DB81E0089521E043E068E08CE0FC
:102920009BDB22E040E063E086E196DB20E040E0D4
:1029300063E08CE091DB20E044E060E18CE08CDB44
:102940008091FD58811106C020E042E064E08CE0F7
:1029500083DB05C021E042E064E08CE07DDB20E029
:1029600042E064E087E178DB8FEF97E0A0E0B0E041
:102970008093F2589093F358A093F458B093F5587D
:1029800020E040E067E084E167DB2091FD5840E013
:102990006FE188E061DB81E0089521E043E068E0D9
:1029A0008CE05ADB22E040E063E086E155DB20E08A
:1029B00040E063E08CE050DB21E044E060E18CE04B
:1029C0004BDB21E042E064E08CE046DB20E042E0CB
:1029D00064E087E141DB8FE090E0A0E0B0E080932D
:1029E000F2589093F358A093F458B093F55880910F
:1029F000FD58843010F01092FD5824E040E067E06C
:102A000084E12ADB2091FD58220F255F40E06FEF23
:102A100083E122DB81E0089521E043E068E08CE07F
:102A20001BDB22E040E063E086E116DB20E044E0CF
:102A300060E18CE011DB21E040E063E08CE00CDB46
:102A40008091FD58811106C020E042E064E08CE0F6
:102A500003DB05C021E042E064E08CE0FDDA21E028
:102A600042E064E087E1F8DA8FEF97E0A0E0B0E0C1
:102A70008093F2589093F358A093F458B093F5587C
:102A800020E040E067E084E1E7DA2091FD5840E093
:102A90006FE188E0E1DA81E0089521E043E068E059
:102AA0008CE0DADA22E040E063E086E1D5DA20E08B
:102AB00044E060E18CE0D0DA22E040E063E08CE0CA
:102AC000CBDA8091FD58811106C020E042E064E03D
:102AD0008CE0C2DA05C021E042E064E08CE0BCDAC0
:102AE00021E042E064E087E1B7DA8FEF97E0A0E011
:102AF000B0E08093F2589093F358A093F458B093B9
:102B0000F55820E040E067E084E1A6DA2091FD5826
:102B100040E06FE188E0A0DA81E0089521E043E041
:102B200068E08CE099DA22E040E063E086E194DA44
:102B300021E040E063E08CE08FDA21E044E060E1F6
:102B40008CE08ADA21E042E064E08CE085DA21E082
:102B500042E064E087E180DA8FE090E0A0E0B0E05E
:102B60008093F2589093F358A093F458B093F5588B
:102B70008091FD58843010F01092FD5824E040E020
:102B800067E084E169DA2091FD58220F255F40E07B
:102B90006FEF83E161DA81E0089521E043E068E0CE
:102BA0008CE05ADA22E040E063E086E155DA22E088
:102BB00040E063E08CE050DA21E044E060E18CE04A
:102BC0004BDA21E042E064E08CE046DA21E042E0CA
:102BD00064E087E141DA8FE090E0A0E0B0E080932C
:102BE000F2589093F358A093F458B093F55880910D
:102BF000FD58843010F01092FD5824E040E067E06A
:102C000084E12ADA2091FD58220F255F40E06FEF22
:102C100083E122DA81E0089580E008952AE031E03E
:102C20002093FA583093FB589AE09093035992E01E
:102C30002BCE28E234E02093FA583093FB5898E2E8
:102C40009093035998E020CECF9384E08093FE5870
:102C500023E02093FF588FEF9FEF8093F8589093D5
:102C6000F9588093F6589093F758C1E0C093FD58F7
:102C70001092025988E294E08093FA589093FB589E
:102C800088E28093035988E08093045985E080931B
:102C90000559209306598AE88093015952DDC09363
:102CA000FC581092005910920759CF9108951F9324
:102CB000CF93DF93CAEED8E56E8582E2C4D96F85E3
:102CC00083E2C1D914E26991812FBDD91F5F1C3203
:102CD000D1F7CAEED8E56C8580E2B5D96D8581E281
:102CE000B2D92091FC5845E060E688E0B5D9209142
:102CF000FF5840E06FE08FE2AFD92091055944E0E2
:102D000060EF8FE2A9D92091005943E068E08EE29C
:102D1000A3D980910259B2DD809101592FDD682F2E
:102D200085E091D980910759882311F086E07CDAFB
:102D3000DF91CF911F9108951F93CF93DF93EB0104
:102D400090910D59943009F445C1813579F0893558
:102D500019F08E3461F505C088818093065980E0B2
:102D600059C188818093FE5880E054C181E09881E8
:102D7000911101C080E080930759882391F06FD1B1
:102D80008091485790914957892B39F489E04CDA62
:102D900081E08093E25880E03DC186E045DA80E042
:102DA00039C188E041DA1092E25880E033C12091C5
:102DB00008592F3009F410C18B3009F402C178F49E
:102DC000823009F4CEC020F4882309F446C006C13D
:102DD000833009F4D2C0843009F4A2C0FFC0833527
:102DE00069F128F48F3451F08035C9F0F7C0873588
:102DF00009F4A8C0803F09F4C9C0F0C0888180935D
:102E0000FF5890910559981710F49093FF5820910E
:102E1000FF5840E06FE08FE21FD980E0FBC088815F
:102E20009981682F8093F8589093F95882E20BD9D2
:102E30006091F95883E207D980E0ECC088819981DC
:102E4000682F8093F6589093F75880E2FCD86091F1
:102E5000F75881E2F8D880E0DDC09111C1C08091BF
:102E60000259853019F08251823078F48FE090E079
:102E7000A0E0B0E0088004C0B695A7959795879527
:102E80000A94D2F780FFAEC00EC08FEF97E0A0E0AB
:102E9000B0E0088004C0B695A795979587950A94E9
:102EA000D2F780FFA1C0EDEFF8E510818881808323
:102EB00095DC80910859883029F088E0B5D98830B0
:102EC000E1F702C0C8E001C0C6E180910259853037
:102ED00021F09EEE980F923048F42091FD58220F79
:102EE000255F40E06FEF83E1B7D813C02091FD5814
:102EF000222339F0112329F040E06FE188E0ACD8BB
:102F000008C0BCDC1EDC8091015938DC682F85E0EC
:102F10009AD8C83009F46AC086E186D980E07AC0C0
:102F2000911166C0283009F470C088E07DD98830DE
:102F3000E1F764C0DD2309F45DC0C09302594EDCA3
:102F400080E068C02881209305598091FF58281798
:102F500010F42093FF5844E060EF8FE27DD880E0CA
:102F600059C08881C1E0D9E58883EBDB888106DC24
:102F7000682F85E068D880E04DC028812093FC58F8
:102F800045E060E688E068D880E044C078816981E7
:102F90005A814B813C812D819E818F81EAEEF8E53B
:102FA000708361835283438334832583968387832D
:102FB000EF0114E26991812F46D81F5F1C32D1F7CF
:102FC0001BC028812093005943E068E08EE244D87A
:102FD00080E020C086E81EC081E81CC084EF1AC0D3
:102FE00086E818C088EE16C088EE14C080E012C0D3
:102FF00086E810C088EE0EC080E00CC0C8818C2F1F
:103000003DDCD82F86E110D995CFC8818C2F36DCD6
:10301000D82F90CFDF91CF911F910895811117C0C4
:10302000809108598F30A9F080910D59811113C0FA
:103030001092E25888E0F8D88830E1F780E00E94EA
:103040001C108FE0F1D88F3041F480E0089588EEB5
:10305000089581E8089586E8089586E808958091A6
:1030600008598F3049F488E0DFD8883039F481E09E
:103070000E941C1080E0089582E8089585E8089574
:10308000DF92EF92FF920F931F93CF93DF931F92E4
:103090001F92CDB7DEB7E0914857F091495730976E
:1030A00031F461E0CE0102960E942F1043C00081EE
:1030B000118180910759882339F047E060E886E064
:1030C0000E9429108823B1F187E00E942010D82E99
:1030D00061E0CE0101960E942F106981662354F1B0
:1030E00083E0860F2BE830E07901E81AF108E00E62
:1030F000F11E6E5FC7010E942F10F801E782F08673
:103100008981F701E80FF11DD282609148577091D3
:10311000495783EE98E54CD88BE80E94581080936D
:10312000485790934957892B29F489E07DD881E04D
:103130008093E2580F900F90DF91CF911F910F91E4
:10314000FF90EF90DF900895882321F087E080932F
:103150004A5707C045E060EE82E00E942910809344
:103160004A5782E080930D59809148579091495772
:10317000892B31F489E058D881E08093E258089592
:1031800086E152C80895CF93C82F803178F4282F54
:1031900040E06FE085E10E942C1040E06FE085E1A7
:1031A0000E9429108C1304C080E003C088EE01C087
:1031B00085E8CF910895811159C08091025990E01E
:1031C0008431910508F054C0FC01EB5CFE4F0C9477
:1031D000432A8091FD58811116C0ECE91BC08091F3
:1031E000FD58811112C0EEE915C08091FD58811182
:1031F0000EC0EEE90FC08091FD5881110AC0EEE9C2
:1032000009C0EEE907C0EDE905C0EDE903C0EDE94D
:1032100001C0EDE9DB016C91862F992787FD909520
:103220002E2F332727FD3095A901435D5F4F4817A7
:1032300059072CF4E35DE0934B572FE010C0E617DD
:1032400024F0E0934B5720E00AC060934B57821B59
:10325000930B63E070E00E940E2A21E0260F40E00D
:103260006FE085E10E942C1080E0089584EF0895BE
:1032700084EF08958DE980934B576BE477E580E008
:103280009ADF80E008950C94690208950C94A102DD
:103290000895E0E0F8E080A191A10895E0E0F8E071
:1032A00087818C7F87838781878380E184870895E6
:1032B000E0E0F8E080E1848787818C7F87838781E5
:1032C000836087830895E0E0F8E086818C7F8683C1
:1032D00086818683848581608487089580E098E074
:1032E0000C943F220895E0E0F8E080A791A70895AC
:1032F0008FB7F89408958FBF0895CF93DF9380E040
:1033000098E00E94C52163E479E180E098E00E94A2
:10331000B922C0E0D8E08981887F89838FEF9FEF51
:103320008EA39FA38881807F816088838E818C7F1C
:103330008E838E8183608E8366E479E180E098E0FD
:103340000E94F7228981806189838F818C7F8F839E
:103350008F818F8388E1DF91CF9108951F920F9223
:103360000FB60F9211240BB60F922F933F934F93EA
:103370005F936F937F938F939F93AF93BF93EF93DD
:10338000FF9381E0E0E4F6E08487E0914C57F09110
:103390004D57309709F01995FF91EF91BF91AF917B
:1033A0009F918F917F916F915F914F913F912F915D
:1033B0000F900BBE0F900FBE0F901F901895CF92DD
:1033C000DF92EF92FF920F931F9380EC98E00E94A0
:1033D0009A03C12CD12C760100EC16EC2DE230E0E2
:1033E00040E067EA70E280EC98E00E94BC03E0EC09
:1033F000F8E080818064808340E050E064E080E415
:1034000096E00E947203E0E4F6E081E0828B94E0B3
:10341000928784871F910F91FF90EF90DF90CF905C
:1034200008951F93CF93DF931F921F92CDB7DEB7FE
:103430008A8319821FB7F8948A8180688A8367EA31
:1034400070E280EC98E00E94000441E050E0BE0190
:103450006E5F7F4F80EC98E00E94DC0341E050E01B
:10346000BE016F5F7F4F80EC98E00E94EC0367EA3B
:1034700070E280EC98E00E9416041FBF89810F90D3
:103480000F90DF91CF911F9108951F93CF93DF93FA
:103490001F921F92CDB7DEB789836A831FB7F89456
:1034A0008981806C898367EA70E280EC98E00E94F1
:1034B000000441E050E0BE016F5F7F4F80EC98E078
:1034C0000E94DC0341E050E0BE016E5F7F4F80EC64
:1034D00098E00E94DC0367EA70E280EC98E00E94CA
:1034E00016041FBF0F900F90DF91CF911F91089589
:1034F00080934C5790934D570895CF93DF93D62FD9
:10350000C42F8FDF8D23682F70E0CB0102C095950B
:103510008795CA95E2F7DF91CF9108950F931F9396
:10352000CF93DF93C82FD62F142F022F7ADF6D2F62
:1035300060958623202F30E0A90102C0440F551F5B
:103540001A95E2F74D23682F642B8C2F9EDFDF91B5
:10355000CF911F910F910895EF92FF920F931F93B8
:10356000CF93DF931F92CDB7DEB78C01E62EFFB667
:10357000F89467EA70E280EC98E00E94000480E230
:10358000898341E050E0BE016F5F7F4F80EC98E09F
:103590000E94DC034E2D50E0B80180EC98E00E94C0
:1035A000EC0367EA70E280EC98E00E941604FFBE2C
:1035B0000F90DF91CF911F910F91FF90EF900895A1
:1035C00043E050E060E180E096E00E94720343E057
:1035D00050E060E280E096E00E94720343E050E039
:1035E00060E880E496E00E94720343E050E060E20D
:1035F00080E496E00E94720340E050E060E480E4E2
:1036000096E00E94720343E050E060E180E496E0BF
:103610000E94720343E050E061E080E496E00E9483
:10362000720343E050E068E080E496E00C9472039B
:1036300008951BBEFC0128ED24BF608308954091CE
:10364000CA01E62FF72F8093CA0184914093CA01E3
:103650000895CF92DF92EF92FF920F931F93CF9333
:10366000DF93EC016A017B01DB01CA010197A1092B
:10367000B109BC01CD01600F711F821F931FA7010B
:1036800096010E94212A2138310541055105F8F49F
:10369000213460F4213260F4213160F4293060F487
:1036A000253060F4233060F090E00BC093E009C057
:1036B00092E007C092E805C091E003C091E801C024
:1036C00090E888818C77892B888381E001C08FEF17
:1036D000DF91CF911F910F91FF90EF90DF90CF90EE
:1036E00008951F920F920FB60F9211240BB60F92EE
:1036F0002F933F934F935F936F937F938F939F93FA
:10370000AF93BF93EF93FF93E0919457F091955748
:10371000309709F01995FF91EF91BF91AF919F916B
:103720008F917F916F915F914F913F912F910F906A
:103730000BBE0F900FBE0F901F9018951F920F9207
:103740000FB60F9211240BB60F922F933F934F9306
:103750005F936F937F938F939F93AF93BF93EF93F9
:10376000FF93E0919257F0919357309709F0199594
:10377000FF91EF91BF91AF919F918F917F916F9149
:103780005F914F913F912F910F900BBE0F900FBE05
:103790000F901F9018951F920F920FB60F92112441
:1037A0000BB60F922F933F934F935F936F937F933B
:1037B0008F939F93AF93BF93EF93FF93E0919057B5
:1037C000F0919157309709F01995FF91EF91BF91C2
:1037D000AF919F918F917F916F915F914F913F91A9
:1037E0002F910F900BBE0F900FBE0F901F9018954A
:1037F0001F920F920FB60F9211240BB60F922F93B8
:103800003F934F935F936F937F938F939F93AF9368
:10381000BF93EF93FF93E0918E57F0918F573097BE
:1038200009F01995FF91EF91BF91AF919F918F9101
:103830007F916F915F914F913F912F910F900BBEB0
:103840000F900FBE0F901F9018951F920F920FB6FA
:103850000F9211240BB60F922F933F934F935F93C8
:103860006F937F938F939F93AF93BF93EF93FF9348
:10387000E0918C57F0918D57309709F01995FF9191
:10388000EF91BF91AF919F918F917F916F915F91D8
:103890004F913F912F910F900BBE0F900FBE0F9045
:1038A0001F9018951F920F920FB60F9211240BB60E
:1038B0000F922F933F934F935F936F937F938F93C9
:1038C0009F93AF93BF93EF93FF93E0918A57F0914B
:1038D0008B57309709F01995FF91EF91BF91AF91F8
:1038E0009F918F917F916F915F914F913F912F9118
:1038F0000F900BBE0F900FBE0F901F9018951F9248
:103900000F920FB60F9211240BB60F922F933F9385
:103910004F935F936F937F938F939F93AF93BF93D7
:10392000EF93FF93E0918857F0918957309709F012
:103930001995FF91EF91BF91AF919F918F917F91D9
:103940006F915F914F913F912F910F900BBE0F9010
:103950000FBE0F901F9018951F920F920FB60F92E7
:1039600011240BB60F922F933F934F935F936F9356
:103970007F938F939F93AF93BF93EF93FF93E091C8
:103980008657F0918757309709F01995FF91EF917D
:10399000BF91AF919F918F917F916F915F914F9167
:1039A0003F912F910F900BBE0F900FBE0F901F9065
:1039B00018951F920F920FB60F9211240BB60F920B
:1039C0002F933F934F935F936F937F938F939F9327
:1039D000AF93BF93EF93FF93E0918457F091855796
:1039E000309709F01995FF91EF91BF91AF919F9199
:1039F0008F917F916F915F914F913F912F910F9098
:103A00000BBE0F900FBE0F901F9018951F920F9234
:103A10000FB60F9211240BB60F922F933F934F9333
:103A20005F936F937F938F939F93AF93BF93EF9326
:103A3000FF93E0918257F0918357309709F01995E1
:103A4000FF91EF91BF91AF919F918F917F916F9176
:103A50005F914F913F912F910F900BBE0F900FBE32
:103A60000F901F9018951F920F920FB60F9211246E
:103A70000BB60F922F933F934F935F936F937F9368
:103A80008F939F93AF93BF93EF93FF93E0918057F2
:103A9000F0918157309709F01995FF91EF91BF91FF
:103AA000AF919F918F917F916F915F914F913F91D6
:103AB0002F910F900BBE0F900FBE0F901F90189577
:103AC0001F920F920FB60F9211240BB60F922F93E5
:103AD0003F934F935F936F937F938F939F93AF9396
:103AE000BF93EF93FF93E0917E57F0917F5730970C
:103AF00009F01995FF91EF91BF91AF919F918F912F
:103B00007F916F915F914F913F912F910F900BBEDD
:103B10000F900FBE0F901F9018951F920F920FB627
:103B20000F9211240BB60F922F933F934F935F93F5
:103B30006F937F938F939F93AF93BF93EF93FF9375
:103B4000E0917C57F0917D57309709F01995FF91DE
:103B5000EF91BF91AF919F918F917F916F915F9105
:103B60004F913F912F910F900BBE0F900FBE0F9072
:103B70001F9018951F920F920FB60F9211240BB63B
:103B80000F922F933F934F935F936F937F938F93F6
:103B90009F93AF93BF93EF93FF93E0917A57F09188
:103BA0007B57309709F01995FF91EF91BF91AF9135
:103BB0009F918F917F916F915F914F913F912F9145
:103BC0000F900BBE0F900FBE0F901F9018951F9275
:103BD0000F920FB60F9211240BB60F922F933F93B3
:103BE0004F935F936F937F938F939F93AF93BF9305
:103BF000EF93FF93E0917857F0917957309709F060
:103C00001995FF91EF91BF91AF919F918F917F9106
:103C10006F915F914F913F912F910F900BBE0F903D
:103C20000FBE0F901F9018951F920F920FB60F9214
:103C300011240BB60F922F933F934F935F936F9383
:103C40007F938F939F93AF93BF93EF93FF93E091F5
:103C50007657F0917757309709F01995FF91EF91CA
:103C6000BF91AF919F918F917F916F915F914F9194
:103C70003F912F910F900BBE0F900FBE0F901F9092
:103C800018951F920F920FB60F9211240BB60F9238
:103C90002F933F934F935F936F937F938F939F9354
:103CA000AF93BF93EF93FF93E0917457F0917557E3
:103CB000309709F01995FF91EF91BF91AF919F91C6
:103CC0008F917F916F915F914F913F912F910F90C5
:103CD0000BBE0F900FBE0F901F9018951F920F9262
:103CE0000FB60F9211240BB60F922F933F934F9361
:103CF0005F936F937F938F939F93AF93BF93EF9354
:103D0000FF93E0917257F0917357309709F019952E
:103D1000FF91EF91BF91AF919F918F917F916F91A3
:103D20005F914F913F912F910F900BBE0F900FBE5F
:103D30000F901F9018951F920F920FB60F9211249B
:103D40000BB60F922F933F934F935F936F937F9395
:103D50008F939F93AF93BF93EF93FF93E09170572F
:103D6000F0917157309709F01995FF91EF91BF913C
:103D7000AF919F918F917F916F915F914F913F9103
:103D80002F910F900BBE0F900FBE0F901F901895A4
:103D90001F920F920FB60F9211240BB60F922F9312
:103DA0003F934F935F936F937F938F939F93AF93C3
:103DB000BF93EF93FF93E0916E57F0916F57309759
:103DC00009F01995FF91EF91BF91AF919F918F915C
:103DD0007F916F915F914F913F912F910F900BBE0B
:103DE0000F900FBE0F901F9018951F920F920FB655
:103DF0000F9211240BB60F922F933F934F935F9323
:103E00006F937F938F939F93AF93BF93EF93FF93A2
:103E1000E0916C57F0916D57309709F01995FF912B
:103E2000EF91BF91AF919F918F917F916F915F9132
:103E30004F913F912F910F900BBE0F900FBE0F909F
:103E40001F9018951F920F920FB60F9211240BB668
:103E50000F922F933F934F935F936F937F938F9323
:103E60009F93AF93BF93EF93FF93E0916A57F091C5
:103E70006B57309709F01995FF91EF91BF91AF9172
:103E80009F918F917F916F915F914F913F912F9172
:103E90000F900BBE0F900FBE0F901F9018951F92A2
:103EA0000F920FB60F9211240BB60F922F933F93E0
:103EB0004F935F936F937F938F939F93AF93BF9332
:103EC000EF93FF93E0916857F0916957309709F0AD
:103ED0001995FF91EF91BF91AF919F918F917F9134
:103EE0006F915F914F913F912F910F900BBE0F906B
:103EF0000FBE0F901F9018951F920F920FB60F9242
:103F000011240BB60F922F933F934F935F936F93B0
:103F10007F938F939F93AF93BF93EF93FF93E09122
:103F20006657F0916757309709F01995FF91EF9117
:103F3000BF91AF919F918F917F916F915F914F91C1
:103F40003F912F910F900BBE0F900FBE0F901F90BF
:103F500018951F920F920FB60F9211240BB60F9265
:103F60002F933F934F935F936F937F938F939F9381
:103F7000AF93BF93EF93FF93E0916457F091655730
:103F8000309709F01995FF91EF91BF91AF919F91F3
:103F90008F917F916F915F914F913F912F910F90F2
:103FA0000BBE0F900FBE0F901F9018951F920F928F
:103FB0000FB60F9211240BB60F922F933F934F938E
:103FC0005F936F937F938F939F93AF93BF93EF9381
:103FD000FF93E0916257F0916357309709F019957C
:103FE000FF91EF91BF91AF919F918F917F916F91D1
:103FF0005F914F913F912F910F900BBE0F900FBE8D
:104000000F901F9018951F920F920FB60F921124C8
:104010000BB60F922F933F934F935F936F937F93C2
:104020008F939F93AF93BF93EF93FF93E09160576C
:10403000F0916157309709F01995FF91EF91BF9179
:10404000AF919F918F917F916F915F914F913F9130
:104050002F910F900BBE0F900FBE0F901F901895D1
:104060001F920F920FB60F9211240BB60F922F933F
:104070003F934F935F936F937F938F939F93AF93F0
:10408000BF93EF93FF93E0915E57F0915F573097A6
:1040900009F01995FF91EF91BF91AF919F918F9189
:1040A0007F916F915F914F913F912F910F900BBE38
:1040B0000F900FBE0F901F9018951F920F920FB682
:1040C0000F9211240BB60F922F933F934F935F9350
:1040D0006F937F938F939F93AF93BF93EF93FF93D0
:1040E000E0915C57F0915D57309709F01995FF9179
:1040F000EF91BF91AF919F918F917F916F915F9160
:104100004F913F912F910F900BBE0F900FBE0F90CC
:104110001F9018951F920F920FB60F9211240BB695
:104120000F922F933F934F935F936F937F938F9350
:104130009F93AF93BF93EF93FF93E0915A57F09102
:104140005B57309709F01995FF91EF91BF91AF91AF
:104150009F918F917F916F915F914F913F912F919F
:104160000F900BBE0F900FBE0F901F9018951F92CF
:104170000F920FB60F9211240BB60F922F933F930D
:104180004F935F936F937F938F939F93AF93BF935F
:10419000EF93FF93E0915857F0915957309709F0FA
:1041A0001995FF91EF91BF91AF919F918F917F9161
:1041B0006F915F914F913F912F910F900BBE0F9098
:1041C0000FBE0F901F9018951F920F920FB60F926F
:1041D00011240BB60F922F933F934F935F936F93DE
:1041E0007F938F939F93AF93BF93EF93FF93E09150
:1041F0005657F0915757309709F01995FF91EF9165
:10420000BF91AF919F918F917F916F915F914F91EE
:104210003F912F910F900BBE0F900FBE0F901F90EC
:1042200018951F920F920FB60F9211240BB60F9292
:104230002F933F934F935F936F937F938F939F93AE
:10424000AF93BF93EF93FF93E0915457F09155577D
:10425000309709F01995FF91EF91BF91AF919F9120
:104260008F917F916F915F914F913F912F910F901F
:104270000BBE0F900FBE0F901F9018951F920F92BC
:104280000FB60F9211240BB60F922F933F934F93BB
:104290005F936F937F938F939F93AF93BF93EF93AE
:1042A000FF93E0915257F0915357309709F01995C9
:1042B000FF91EF91BF91AF919F918F917F916F91FE
:1042C0005F914F913F912F910F900BBE0F900FBEBA
:1042D0000F901F9018951F920F920FB60F921124F6
:1042E0000BB60F922F933F934F935F936F937F93F0
:1042F0008F939F93AF93BF93EF93FF93E0915057AA
:10430000F0915157309709F01995FF91EF91BF91B6
:10431000AF919F918F917F916F915F914F913F915D
:104320002F910F900BBE0F900FBE0F901F901895FE
:104330001F920F920FB60F9211240BB60F922F936C
:104340003F934F935F936F937F938F939F93AF931D
:10435000BF93EF93FF93E0914E57F0914F573097F3
:1043600009F01995FF91EF91BF91AF919F918F91B6
:104370007F916F915F914F913F912F910F900BBE65
:104380000F900FBE0F901F901895CF93CFB7F89452
:10439000282F392F211588E0380759F461E083E090
:1043A00090E00E94250364E083E090E00E942503F2
:1043B0005BC0203488E0380759F462E083E090E085
:1043C0000E94250364E083E090E00E9425034CC036
:1043D000211589E0380759F461E084E090E00E94FB
:1043E000250364E084E090E00E9425033DC0203472
:1043F00089E0380759F462E084E090E00E942503E8
:1044000064E084E090E00E9425032EC021158AE03C
:10441000380759F461E085E090E00E94250364E0EC
:1044200085E090E00E9425031FC020348AE0380711
:1044300059F462E085E090E00E94250364E085E0A5
:1044400090E00E94250310C021153B4059F461E023
:1044500086E090E00E94250364E086E090E00E9400
:10446000250302C0CFBF09C08FB7F894E6ECF8E58A
:1044700090819F5F90838FBFCFBFCF910895CF93DF
:10448000CFB7F8942FB7F894E6ECF8E530813150C7
:1044900030832FBF282F392F211588E0380759F492
:1044A00061E083E090E00E94300364E083E090E00C
:1044B0000E9430035BC0203488E0380759F462E082
:1044C00083E090E00E94300364E083E090E00E948B
:1044D00030034CC0211589E0380759F461E084E0CD
:1044E00090E00E94300364E084E090E00E9430039A
:1044F0003DC0203489E0380759F462E084E090E060
:104500000E94300364E084E090E00E9430032EC0FB
:1045100021158AE0380759F461E085E090E00E94B7
:10452000300364E085E090E00E9430031FC0203437
:104530008AE0380759F462E085E090E00E94300399
:1045400064E085E090E00E94300310C021153B40FC
:1045500059F461E086E090E00E94300364E086E078
:1045600090E00E94300302C0CFBF01C0CFBFCF9107
:104570000895811528E0920729F460939457709369
:1045800095570895803428E0920729F4609388575E
:10459000709389570895811529E0920729F4609353
:1045A0008057709381570895803429E0920729F449
:1045B0006093745770937557089581152AE0920798
:1045C00029F460936C5770936D57089580342AE0F6
:1045D000920729F46093605770936157089581158D
:1045E0009B4021F460935857709359570895811553
:1045F00028E0920729F4609390577093915708959B
:10460000803428E0920729F460938457709385578B
:104610000895811529E0920729F460937C577093DF
:104620007D570895803429E0920729F460937057EC
:1046300070937157089581152AE0920729F46093C9
:10464000685770936957089580342AE0920729F4D7
:1046500060935C5770935D57089581159B4021F4DA
:1046600060935457709355570895811118C09091D5
:10467000C458992389F09FB7F894E6ECF8E52081B7
:10468000215020839FBF08C09FB7F894E6ECF8E55F
:1046900020812F5F20839FBF8093C45808959091FD
:1046A000C458992389F3F8CF0F93E8ECF4E08081A4
:1046B0008F7D808380818F7D8083E8E9F8E502E04B
:1046C000059310929A5810929B5800E2069300E4CA
:1046D0000693E0E9F8E500E2069300E40693109201
:1046E0001A5910921B5910921C5910921D59109270
:1046F00018591092195910927F58109280580F91A2
:1047000008950F9385E090E080937F5890938058B0
:10471000E9E9F8E504E00593E1E9F8E504E005934B
:104720000F9108950F9383E090E080937F589093CA
:10473000805810929A5810929B58E8E9F8E502E0E8
:1047400006930F910895E0911A59F0911B593097F3
:1047500009F0199508950F93CF93DF9380917F58B7
:1047600090918058039719F4EEDF9EDF63C080912B
:104770007B5890917C58C0911859D0911959C81BF9
:10478000D90B89F520917D5830917E58820F931F67
:1047900080937D5890937E582091145930911559EB
:1047A0008217930721F080919657882359F084E06F
:1047B00090E080937F5890938058E0E9F8E502E01C
:1047C000069338C0E0911C59F0911D59309799F02B
:1047D0001995882381F010927B5810927C58C091D3
:1047E0001859D0911959C034D10528F01092965714
:1047F000C0E4D0E003C081E080939657C0939A58FC
:10480000D0939B5880917B5890917C582091165959
:1048100030911759280F391F20939C5830939D5879
:10482000C80FD91FC0937B58D0937C58E8E9F8E5AE
:1048300002E00693DF91CF910F910895FC018181F1
:10484000877090E0FC013197E730F10518F4E75BE1
:10485000FE4F19C688E090E0089580E290E0089548
:1048600080E490E0089580E890E0089580E091E091
:10487000089580E092E008958FEF93E0089580E13D
:1048800090E00895282F2F7030E0220F331F9927D2
:1048900087FD90958827990F881F9927820F931F6E
:1048A00002979C01220F331F220F331F220F331F49
:1048B000820F931F895E974A08950F93CF9380913B
:1048C000CC0480FF6BC081E08093CC04E0E9F8E584
:1048D00000E80693E8E9F8E500E806938093CA0447
:1048E000E0E9F8E500E1069380917F5890918058C7
:1048F000009729F00397029708F425DFD5DE809111
:10490000925890919358089709F04AC088E0EBE3D9
:10491000F8E5AEE0B9E501900D928A95E1F7E8EC93
:10492000F4E08081806280838081806280830E9445
:10493000E608C82F811103C0E4DEC1E032C08091D7
:104940000E59882384F410927D5810927E5810924C
:104950007B5810927C5822E030E020937F583093AF
:104960008058F9DE1EC02091145930911559232B1F
:1049700011F4D8DE16C010927D5810927E58109215
:104980007B5810927C5821E030E020937F58309380
:104990008058E0E9F8E502E0069303C0C0E001C0FA
:1049A000C1E08C2FCF910F910895BF92CF92DF92EB
:1049B000EF92FF920F931F93CF93DF93B82E62DF96
:1049C000EC011B2D111F1127111F8B2D8F70E82E4D
:1049D000F12CEE0CFF1CE10EF11CC701880F991F92
:1049E000880F991F880F991F9C012057374A79011A
:1049F000C90124DF6C01112309F459C0D7011696AF
:104A00002D913C9117978D819E81280F391F2D8301
:104A10003E838B819C8128173907B9F1FC01E21B89
:104A2000F30B9F012115F4E03F0738F02FEF33E03F
:104A3000C901B601DFD4281B390B888181FF09C069
:104A4000C901B601D7D441E0892B09F040E0942F89
:104A500001C090E0888190FB81F98883D701169688
:104A60001D921C92179712962D933C9313972981B0
:104A70003A818D819E81820F931F14968D939C9312
:104A80001597F70102E0069395C0888181FF83C0E6
:104A90008D7F8883D70116961D921C9217971296C8
:104AA0001D921C921397F70102E0069383C0D70171
:104AB00012960D911C911397888182FF13C0E98192
:104AC000FA812D813E818B819C81B60193D4B0E423
:104AD000BB9EB0011124695A784AAC01CF01820F04
:104AE000931F5CD52D813E81200F311F2D833E8386
:104AF000EB81FC81E217F30710F4ED83FE83D7010D
:104B000016968D919C9117978017910709F043C0D5
:104B10008D819E81E817F90709F43DC0E81BF90B68
:104B2000E115B4E0FB0740F0EFEFF3E0CF01B60191
:104B300061D4E81BF90B05C0CF01B6015BD4E81BBB
:104B4000F90BD70112961D921C921397EC15FD05D7
:104B500078F4888184608883B0E4BB9EC00111240E
:104B6000895A984AF70184839583C682D7820FC0F9
:104B700029813A818D819E81820F931FD7011496DE
:104B80008D939C9315971696ED93FC931797F701C9
:104B900002E006930FC0888180FF0CC08E7F88835F
:104BA000EF81F885309731F06D817E814B2D80E06B
:104BB00090E01995DF91CF911F910F91FF90EF90A9
:104BC000DF90CF90BF900895CF93CFB7F89481E056
:104BD0004CDDEAECF4E080E4808380E28083E1EC69
:104BE000F4E0808181608083A9ECB4E08C918260E4
:104BF0008C93E8ECF4E08081806480838C91816008
:104C00008C93808180688083CFBFCF910895CF93AC
:104C1000DF93C0E6D0E0188280E30E943A03E0EC24
:104C2000F4E080818064808381E08883CFB7F8944A
:104C300010929158109299581092A1581092A95818
:104C40001092B1581092B958E7E1F8E580818E7F53
:104C50008083E0E2F8E580818E7F8083E9E2F8E5F9
:104C600080818E7F8083E2E3F8E580818E7F808380
:104C70006AE170E082E00E941F1B8F3F19F0809371
:104C8000FA0403C08FE18093FA046BE170E082E0E4
:104C90000E941F1B8F3F19F08093FB0403C08FE11C
:104CA0008093FB04E0ECF4E080818260808380816B
:104CB0008068808380818061808380E998E5868335
:104CC00097838081806280838FEF8093C504E8ECB6
:104CD000F4E08081816080831092C4588FB7F8948B
:104CE000EAECF8E590819F5F90838FBF6DDFCFBFC7
:104CF000DF91CF91089580E008958093C3040895D3
:104D00008091C30408958091C0589091C15808952E
:104D100080E090E00895809316599093175960931E
:104D20001859709319590895E82FEF70F0E0EE0FBD
:104D3000FF1F992787FD90958827990F881F99272E
:104D4000E80FF91FEE0FFF1FEE0FFF1FEE0FFF1F03
:104D5000E057F74A8181807C09F043C0637061307D
:104D600029F010F480E403C080E801C080EC4038F2
:104D70005105E1F050F440325105A1F040345105A5
:104D800099F04031510561F419C0411592E059077D
:104D900089F04F3F93E0590779F04115514041F0B8
:104DA00020E00DC022E00BC023E009C024E007C0D2
:104DB00025E005C026E003C027E001C021E0118204
:104DC00096E09083822B81838181807C803C21F4DA
:104DD00081818770873039F081818062818381E0B1
:104DE000089580E0089581E00895E82FEF70F0E0E5
:104DF000EE0FFF1F992787FD90958827990F881F31
:104E00009927E80FF91FEE0FFF1FEE0FFF1FEE0FA0
:104E1000FF1FE057F74A818182FB882780F90895B8
:104E2000E82FEF70F0E0EE0FFF1F282F332727FD4C
:104E300030952227330F221F3327E20FF31FEE0F87
:104E4000FF1FEE0FFF1FEE0FFF1FE057F74A918184
:104E500092FF0EC091819B7F918314DDFC018081C4
:104E600080FF06C08E7F80830780F085E02D199536
:104E700081E008957F928F929F92AF92BF92CF92DE
:104E8000DF92EF92FF920F931F93CF93DF93982EB1
:104E9000862E5A016901F6DC7C01792C771C772477
:104EA000771CC92DCF70D0E0CC0FDD1FC70DD11DF1
:104EB000CC0FDD1FCC0FDD1FCC0FDD1FC057D74A35
:104EC0008981807C09F44BC08981807C803C19F009
:104ED000898182FD46C08FB7F894F701908190FFD9
:104EE00003C08FBF712C3EC0F70190819160908309
:104EF0008FBFF701A182B282C382D482158216824B
:104F000007831087811006C091E0C114D10419F005
:104F100090E001C091E0F701808190FB81F98B7FE7
:104F20008083772019F01E821F8214C08981807CC3
:104F3000803C61F4CE0182DCBC01C6015BD2892BCE
:104F400029F0F70180818E7F80830CC01A821B823A
:104F50001E821F82892D29DD7724739403C0712C52
:104F600001C0712C872DDF91CF911F910F91FF9080
:104F7000EF90DF90CF90BF90AF909F908F907F90F9
:104F80000895FF920F931F93CF93DF93182FF82E5E
:104F9000FF1CFF24FF1CC82FCF70D0E0CC0FDD1FFB
:104FA000CF0DD11DCC0FDD1FCC0FDD1FCC0FDD1FB2
:104FB000C057D74A67DCDC01FE0102E005938C9103
:104FC00080FF13C08E7F8C931796ED91FC911897FC
:104FD000309759F0FF2019F06E817F8102C06A81FD
:104FE0007B81412F81E090E01995DF91CF911F9156
:104FF0000F91FF900895CF93C82FC3DFEC2FEF7070
:10500000F0E0EE0FFF1F8C2F992787FD90958827E2
:10501000990F881F9927E80FF91FEE0FFF1FEE0F5A
:10502000FF1FEE0FFF1FE057F74A1182CF9108953F
:105030000F93E82FEF70F0E0EE0FFF1F282F3327BC
:1050400027FD30952227330F221F3327E20FF31F4E
:10505000EE0FFF1FEE0FFF1FEE0FFF1FE057F74A87
:1050600091819460918301E006938BDF81E00F9141
:1050700008951F920F920FB60F9211240BB60F9244
:105080000F932F933F934F935F936F937F938F93E0
:105090009F93AF93BF93EF93FF938091CB048823AB
:1050A00034F480E88093CA040E94B70891C08091CC
:1050B000CB0482FF23C084E08093CA048091985877
:1050C00086FF86C08091CC0481FD82C0F6DB811111
:1050D0007FC080917F58909180588130910511F464
:1050E00021DB76C0049709F073C0E9E9F8E504E034
:1050F0000593E1E9F8E504E005936AC08091CB04EB
:1051000081FF61C082E08093CA048091905886FF3D
:105110005FC08091CC0481FD5BC0CFDB811158C0A2
:1051200080917F58909180588230910559F484E0A5
:1051300090E080937F5890938058E0E9F8E502E092
:10514000069346C0039709F043C0E9E9F8E504E097
:105150000593E1E9F8E504E005933AC080E1809326
:10516000CA0481E00EDF81E80CDF0E9490081092F3
:10517000C304E1E9F8E5108296E09093905883E447
:105180008083E9E9F8E510829093985880838BE357
:1051900098E5809394589093955886DA19C0809139
:1051A000CB0486FF06C080E48093CA0480E05DDA09
:1051B0000FC08091CB0485FF0BC080E28093CA04AE
:1051C00081E053DA05C08091CB0484FFE8CFC6CFDD
:1051D000FF91EF91BF91AF919F918F917F916F91CF
:1051E0005F914F913F912F910F910F900BBE0F90B8
:1051F0000FBE0F901F9018951F920F920FB60F922F
:1052000011240BB60F920F931F932F933F934F933D
:105210005F936F937F938F939F93AF93BF93CF933E
:10522000DF93EF93FF938091CC0481FD03C045DBB6
:105230008111BAC082E08093CC048091C50481952D
:10524000880FE0E9F8E5E81BF10920813181205958
:105250003845369527953695279536952795822F8B
:10526000869520FF02C090E801C090E0890FE82FEA
:10527000EF70F0E0EE0FFF1F282F332727FD30954A
:105280002227330F221F3327E20FF31FEE0FFF1FDA
:10529000EE0FFF1FEE0FFF1FE057F74A908195FFBB
:1052A00083C000E2069381117AC080917F5890916B
:1052B0008058049719F447DAF7D976C0C09192580C
:1052C000D0919358809118599091195900917B5819
:1052D00010917C5898012C0F3D1F8217930718F4EA
:1052E000EC01C01BD10B8091165990911759AE015A
:1052F0006BE378E5800F911F51D10C0F1D1F0093B8
:105300007B5810937C58C034D10569F480917D5846
:1053100090917E58800F911F20911459309115590A
:105320008217930788F00093185910931959E09148
:105330001C59F0911D59309729F01995811102C01F
:10534000E0D932C0EFD930C08091185990911959E5
:1053500008171907F9F4E0911C59F0911D5930977D
:1053600011F4CFD921C01995811102C0CAD91CC02E
:1053700020917D5830917E5880917B5890917C5837
:10538000820F931F80937D5890937E5810927B5884
:1053900010927C58E0E9F8E502E0069305C08038F9
:1053A00011F4D9D901C001DBFF91EF91DF91CF91C9
:1053B000BF91AF919F918F917F916F915F914F912D
:1053C0003F912F911F910F910F900BBE0F900FBE29
:1053D0000F901F901895DB018F939F935AD0BF9128
:1053E000AF91A29F800D911DA39F900DB29F900D34
:1053F00011240895AA1BBB1B51E107C0AA1FBB1FA4
:10540000A617B70710F0A61BB70B881F991F5A9550
:10541000A9F780959095BC01CD01089597FB072EC3
:1054200016F4009406D077FD08D0E4DF07FC05D021
:105430003EF4909581959F4F0895709561957F4FAB
:105440000895A1E21A2EAA1BBB1BFD010DC0AA1FC5
:10545000BB1FEE1FFF1FA217B307E407F50720F0DD
:10546000A21BB30BE40BF50B661F771F881F991F58
:105470001A9469F760957095809590959B01AC01A1
:10548000BD01CF010895EE0FFF1F0590F491E02DAF
:1054900019941ED0A59F900DB49F900DA49F800DD0
:1054A000911D112408952A153B054C055D056E05D7
:1054B0007F058007910708950024A7FD00942A170F
:1054C000300540055005600570058005900508957C
:1054D000A29FB001B39FC001A39F700D811D112435
:1054E000911DB29F700D811D1124911D08958F9201
:1054F0009F92AF92BF92CF92DF92EF92FF92CF93A3
:10550000DF93EC01688179818A819B816115710546
:105510008105910521F464E279ED8BE597E02DE1B9
:1055200033EF41E050E0D5D149015A019B01AC0174
:10553000A7EAB1E4AEDF6B017C01ACEEB4EFA501EC
:105540009401E5D1C60ED71EE81EF91EF7FE06C06F
:1055500081E0C81AD108E10880E8F80AC882D98237
:10556000EA82FB82C6019F77DF91CF91FF90EF9097
:10557000DF90CF90BF90AF909F908F900895B7CF5E
:1055800080E090E2B4CFA0E0B0E080930020909360
:105590000120A0930220B09303200895FB01DC01B9
:1055A00002C001900D9241505040D8F70895DC019F
:1055B00001C06D9341505040E0F708950F931F9341
:1055C000CF93DF93EC018B01009731F461157105E6
:1055D00019F480E090E037C06EE070E081E090E088
:1055E00037D0FC010097A9F380E8838301151105EA
:1055F00071F00287138781E8838380911F5990910E
:105600002059892B21F4E0931F59F09320592097BA
:10561000C9F0C087D18783818260838380912159BB
:1056200090912259892B71F4E0932159F0932259DA
:105630008091235990912459892B21F4E093235987
:10564000F0932459CF01DF91CF911F910F910895CD
:105650000F931F93CF93DF93869F8001879F100D39
:10566000969F100D1124C8010DD0EC01009721F078
:10567000A80160E070E09BDFCE01DF91CF911F9128
:105680000F910895CF93DF938230910510F482E05B
:1056900090E0E0912759F091285920E030E0A0E017
:1056A000B0E0309739F14081518148175907B8F07F
:1056B0004817590771F482819381109729F0129647
:1056C0008D939C9313972CC08093275990932859BE
:1056D00027C02115310531F04217530718F0A901F1
:1056E000DB0101C0EF019A01BD01DF010280F381FE
:1056F000E02DD7CF21153105F9F0281B390B2430C7
:10570000310580F48A819B816115710521F0FB01CF
:105710008283938304C08093275990932859FE0174
:10572000329644C0FE01E20FF31F81939193225001
:105730003109288339833AC020912559309126595F
:10574000232B41F4209106203091072020932559E6
:1057500030932659209104203091052021153105E0
:1057600041F42DB73EB74091082050910920241BE9
:10577000350BE0912559F0912659E217F307A0F473
:105780002E1B3F0B2817390778F0AC014E5F5F4F97
:105790002417350748F04E0F5F1F4093255950934B
:1057A00026598193919302C0E0E0F0E0CF01DF91B0
:1057B000CF910895CF93DF93009709F487C0FC0140
:1057C000329712821382C0912759D091285920977D
:1057D00081F420813181280F391F809125599091C2
:1057E00026598217930779F5E0932559F0932659A6
:1057F0006DC0DE0120E030E0AE17BF0750F4129616
:105800004D915C9113979D014115510509F1DA0104
:10581000F3CFA283B38340815181840F951F8A17F0
:105820009B0771F48D919C911197840F951F02969F
:105830008083918312968D919C9113978283938399
:105840002115310529F4E0932759F09328593EC0DA
:10585000D9011296ED93FC9313974D915D91A40F8E
:10586000B51FEA17FB0779F480819181840F951F9A
:105870000296D9018D939C93119782819381129600
:105880008D939C931397E0E0F0E08A819B810097D1
:1058900019F0FE01EC01F9CFCE0102962881398181
:1058A000820F931F209125593091265928173907C7
:1058B00069F4309729F4109227591092285902C0A0
:1058C00012821382C0932559D0932659DF91CF912C
:1058D0000895052E97FB16F400940FD057FD05D0C0
:1058E000B0DD07FC02D046F408C0509540953095D5
:1058F00021953F4F4F4F5F4F08959095809570953C
:1059000061957F4F8F4F9F4F0895B7FFC2CDC1DD87
:0A591000821B930B0895F894FFCF5B
:10591A0001000000000029592000FB053705320468
:10592A003404340537042C044205340400006E2084
:10593A0022202A20262014200A20090243000201DC
:10594A0000C032090400000102020100052400100F
:10595A0001042402020524060001052401030107AB
:10596A0005820340001009040100020A0000000732
:10597A0005810240000007050202400000001201F2
:10598A00000202000040EB034B210001010200016A
:10599A0000030000000000000000000000000000FA
:1059AA00000000004344430041544D454C204153FC
:0859BA0046000403090408146F
:00000001FF
