:1000000036C1000055C100000C946B1751C10000AF
:100010004FC100004DC100004BC1000049C10000AC
:1000200047C1000045C1000043C1000041C10000BC
:100030003FC100003DC100000C942E190C945B19C7
:100040000C9488190C94B5190C94E2190C940F1A9D
:100050000C943C1A0C94691A0C94961A0C94C31ABA
:1000600027C1000025C1000023C1000021C10000FC
:100070001FC100001DC100001BC1000019C100000C
:1000800017C1000015C1000013C1000011C100001C
:100090000FC100000DC100000BC1000009C100002C
:1000A00007C1000005C1000003C1000001C100003C
:1000B000FFC00000FDC00000FBC000000C94B21C9B
:1000C0000C94DF1C0C940C1D0C94391D0C94661DB3
:1000D0000C94931D0C94C01D0C94ED1D0C941A1ED1
:1000E0000C94471EE5C00000E3C00000E1C0000022
:1000F000DFC00000DDC00000DBC00000D9C0000090
:10010000D7C00000D5C00000D3C00000D1C000009F
:10011000CFC00000CDC00000CBC00000C9C00000AF
:10012000C7C00000C5C00000C3C00000C1C00000BF
:10013000BFC000000C94F01A0C941D1B0C944A1BB9
:100140000C94771B0C94A41B0C94D11B0C94FE1BD9
:100150000C942B1C0C94581C0C94851CA9C00000FA
:10016000A7C00000A5C00000A3C00000A1C00000FF
:100170009FC000009DC000009BC0000099C000000F
:1001800097C0000095C0000093C0000091C000001F
:100190008FC000008DC000008BC0000089C000002F
:1001A00087C0000085C0000083C0000081C000003F
:1001B0000C94741E0C94A11E0C94CE1E0C94FB1E69
:1001C0000C94281F0C94551F73C0000071C00000D0
:1001D0006FC000006DC000006BC0000069C000006F
:1001E00067C0000065C0000063C0000061C000007F
:1001F0005FC000000C94F6250C94B926FC0D150E7A
:100200002E0E3D0E590E7B0E8B0EA50EBC0EBC0E97
:10021000460E500EA511C3110F12D1110F129C11D1
:10022000AE110F120F120F120F120F1274110F12C4
:100230000F120F120F120F120F12E6110F120F12E0
:10024000FB110F120F120F120F120F120F12741157
:10025000FC21EA21ED21F021F321F621F92104030B
:10026000030303020100FFFEFDFCFAF8F4EF112482
:100270001FBECFEFCDBFDFE5DEBF00E00CBF10E259
:10028000A0E0B0E2E4E9F4E500E00BBF02C00790B3
:100290000D92A83AB107D9F729E5A8EAB0E201C062
:1002A0001D92A932B207E1F70E94450C0C94482A2E
:1002B000A7CE0E9406172091AC202223D9F04091AE
:1002C0001E5930E02091AC20642F732F0E94B72775
:1002D000FB018FEF9FEF642F732F0E94B72730E051
:1002E000629FC001639F900D729F900D11248E0F2D
:1002F0009F1F089560911E5970E00E94B727CB019F
:1003000008950E940B170E9435171092A820109292
:10031000A9201092AA201092AB201092AD2010922A
:10032000AE200C9438170E9420171092AC2008952C
:10033000E8DFF9DF0C942B170F931F93CF93DF9314
:10034000EC010E9406178C01BE0180E090E0209134
:100350001E5930E040E050E00E94A827DC01CB01AC
:10036000A80160E070E0480F591F6A1F7B1F40938F
:10037000A8205093A9206093AA207093AB204091AD
:10038000A8205091A9206091AA207091AB20AB01C8
:10039000662777274093A8205093A9206093AA202E
:1003A0007093AB204091A8205091A9206091AA2081
:1003B0007091AB20411551056105710591F0409197
:1003C000A8205091A9206091AA207091AB2001969D
:1003D000080F191F0093AD201093AE200E940B1739
:1003E00008C0080F191F0093AD201093AE200E9483
:1003F00015178091AD209091AE208436910530F490
:100400008C599F4F8093AD209093AE208091AD206A
:100410009091AE200E943017DF91CF911F910F91E4
:1004200008951092AC200E943A1780931E590895A7
:100430008091A8209091A920A091AA20B091AB20F2
:100440000097A105B105C9F08091A8209091A9203D
:10045000A091AA20B091AB200197A109B109809386
:10046000A8209093A920A093AA20B093AB20009736
:10047000A105B10511F40E9415178091AC208F5F82
:100480008093AC2090911E59891748F01092AC20AF
:10049000E091AF20F091B020309709F019950895C0
:1004A0000E940B17E091B120F091B220309709F033
:1004B000199508958093AF209093B020089580936C
:1004C000B1209093B2200895CF93DF9300D01F9274
:1004D000CDB7DEB78FEF809370008093710080936B
:1004E00072008093730080937400809375008093F2
:1004F000760064E081E490E00E94D6186CE170E040
:1005000082E00E94DC188A836DE170E082E00E9444
:10051000DC18898389819A81019621F480E493E231
:1005200089839A8389819A818B839C83E0E6F0E0BA
:1005300082838C8183838FB7F894E0E5F0E090812B
:10054000926090838FBF818181FFFDCF8FB7F89438
:10055000A0E5B0E016969C911697997F16969C930D
:100560001697E0E6F0E090E895839BEB968316966D
:100570009C911697946016969C93908191609083BD
:100580008FBF61E080E490E00E94D6188FB7F894A6
:10059000E0E5F0E090819E7F90838FBF2496CDBFF1
:1005A000DEBFDF91CF9108952FB7F894FC01E05999
:1005B000FF4F60958081682360832FBF08952FB718
:1005C000F894FC01E059FF4F8081682B60832FBFB6
:1005D0000895863011F468E101C060E0E0E5F0E0E4
:1005E000818181FD24C08FB7F894908192609083BF
:1005F0008FBF818181FFFDCF8FB7F894A0E5B0E078
:1006000016969C911697997F16969C931697E0E6FE
:10061000F0E090E895839BEB968316969C91169755
:10062000946016969C939081916090838FBF6360D5
:1006300084E490E00E94D61860E480E090E0B4CFBB
:100640000895CF93DF93FC01709620E030E0C62F31
:10065000D0E0DE01022E02C0B595A7950A94E2F71C
:10066000A0FD50832F5F3F4F31962830310589F729
:1006700040FF0AC041FF03C0FC01658302C0FC01CA
:100680006683FC01618302C0FC016283DF91CF912C
:100690000895CF93DF93EC01C03C28E0D20729F402
:1006A00068E083E090E080DF10C0803C29E09207A2
:1006B00029F468E084E090E077DF07C0803C9A404E
:1006C00021F468E085E090E06FDF888180618883B5
:1006D000DF91CF910895FF920F931F93CF93DF93F4
:1006E000EC01F42EB901A80100E016E32EE631E09A
:1006F0000E94E61888234CF088819F2D990F990F4E
:100700009C70837FF92EF82AF882DF91CF911F9198
:100710000F91FF900895FC01DB01460F571F05C0A4
:100720008D91838382818823ECF7A417B507C1F7E5
:1007300080E090E00895FC01DB014115510561F076
:10074000460F571F9FEF938382818823ECF78381A5
:100750008D93A417B507B9F780E090E00895FB01E9
:100760008081E82FE695E695E69540E2E49FF0016A
:100770001124FA5F877021E030E0A90102C0440F24
:10078000551F8A95E2F746830895FB018081E82F83
:10079000E695E695E69540E2E49FF0011124FA5FC4
:1007A000877021E030E0A90102C0440F551F8A95EF
:1007B000E2F7458308958091C82581508093C8252C
:1007C000089580E0089580E0089508951092C82566
:1007D0001092D4251092D52581EA8093CA2580E213
:1007E0008093CB251092CC251092CD251092CE254A
:1007F0001092CF2582E090E08093D0259093D12570
:100800001092D2251092D32580E092ECA1E0B0E0C6
:100810008093D6259093D725A093D825B093D9253A
:100820001092DA251092DB2588E08093DC2580E0A9
:10083000DAD7882329F09091C8259F5F9093C82527
:100840000895FF920F931F93CF93DF938091B6206B
:1008500081119BC00E943824882351F0C091B72099
:10086000D091B8200E944524C817D90759F48DC0EB
:10087000C091B720D091B8200E944024C817D90752
:1008800009F483C0DFB7F894C091B920EC2FF0E0F1
:10089000EE0FFF1FE654FF4D80819181892B09F5F2
:1008A0008091B3209091B42001968093B3209093CF
:1008B000B4200E943824811107C08091B320909108
:1008C000B4208436910558F00E943824882349F0DA
:1008D0008091B3209091B4208032934010F4DFBF18
:1008E00054C01092B3201092B4208091B520811191
:1008F00006C081E0C11180E08093B92004C081E08E
:10090000C11180E0C82F81E08093B620DFBFD0E026
:10091000FE01EE0FFF1FE654FF4DFF24F39480818C
:1009200091818034914009F4F12CFF2091F00E94D4
:100930003824882339F00E9445248093B72090936F
:10094000B8200BC00E9440248093B7209093B82019
:1009500004C01092B7201092B820FE01EE0FFF1FC6
:10096000E654FF4D2081318180E491E0C89FA001D1
:10097000C99F500DD89F500D112442545F4D0BEC70
:1009800014E06F2D81E80E94F724DF91CF911F9131
:100990000F91FF900895892BA9F42091B92081E04F
:1009A00090E0222311F080E090E0FC01EE0FFF1FA9
:1009B000E654FF4D108211821092B5201092B6209D
:1009C00080E03FCF089580E03CCF08958091C72517
:1009D00081508093C7258091C72509D71092C625DD
:1009E000089580910E598823ECF48076803209F0C6
:1009F00043C080910F59813209F040C08091145951
:100A0000909115590797E1F586ED95E28093165977
:100A10009093175987E090E0809318599093195953
:100A200081E008958076803269F580910F59803297
:100A300019F08232D9F028C080911459909115593B
:100A4000079721F585EE93E080931A5990931B59EF
:100A500086ED95E2809316599093175987E090E0C0
:100A6000809318599093195981E0089580911059F5
:100A70008170C0D681E0089580E0089580E00895F7
:100A800080E0089580E0089580E0089580E0089572
:100A90004FB7F89420913F2330914023E0914123B8
:100AA000F0E0EE0FFF1FEE5BFC4D80819181821B19
:100AB000930B4FBF0895ECDF21E0892B09F420E070
:100AC000822F08950F931F93CF93DF934FB7F8941E
:100AD0005091412380913E23811110C020913F23EA
:100AE00030914023C52FD0E0FE01EE0FFF1FEE5BDB
:100AF000FC4D808191812817390718F44FBF80E0A1
:100B000024C010923F231092402381E0511180E0D5
:100B10008093412381E080933E234FBF80E0CBDF71
:100B200081116ED680E491E0C89FA001C99F500D4D
:100B3000D89F500D11244A5B5C4D0CED15E020E46C
:100B400031E061E082E00E94F724DF91CF911F91B4
:100B50000F9108951092C7251092B6201092B520DB
:100B60001092B9201092BA201092BB201092BC2093
:100B70001092BD201092B7201092B82080E061DE64
:100B800010923E231092412310924223109243234D
:100B900010923F231092402380E094DF882359F085
:100BA0009091C7259F5F9093C7259091C72591305D
:100BB00011F49093C62508950F931F93A42F892BAA
:100BC00039F580914123E1E08111E0E06115710583
:100BD000A1F4F0E020E431E0E29FB001E39F700D6A
:100BE000F29F700D1124AB014A5B5C4D0CED15E0DA
:100BF00061E08A2F0E94F7240BC0F0E0EE0FFF1F88
:100C0000EE5BFC4D6083718310923E2380E05ADFDF
:100C10001F910F91089580E04ECF0895FF920F939A
:100C20001F93CF93DF93FF24F3948091DC258930C9
:100C300009F0F12C60E070E0C0E4D1E03FB7F89437
:100C400080913F2390914023209141233FBF30E08A
:100C5000F901EE0FFF1FEE5BFC4D408151818417BF
:100C6000950730F08091C6258111E8CF90E01DC036
:100C70002C9FF0012D9FF00D3C9FF00D1124E80FEB
:100C8000F91FEA5BFC4D20818B01022B01968093BA
:100C90003F239093402380E015DFFF2021F0702F49
:100CA0006627F12CCBCF802F912FDF91CF911F9111
:100CB0000F91FF90089580E0B1CF08955FB7F89449
:100CC0002091B920E22FF0E0EE0FFF1FE654FF4D18
:100CD0008081918141E0211140E0E42FF0E0EE0FAE
:100CE000FF1FE654FF4D20813181803461E096077B
:100CF00089F46091B62061110DC06091B520611139
:100D000009C081E08093B5204093B92020E431E010
:100D100080E090E05FBF280F391F80E892E0821BDF
:100D2000930B0895CBDF21E0892B09F420E0822F7B
:100D30000895FF920F931F93CF93DF93F62E172FF3
:100D400001E08091DC25893009F000E0C0E4D1E0C9
:100D500080E0E8DF811107C08091C6258111F8CFBE
:100D600080E090E028C06FB7F8942091B92030E07F
:100D7000F901EE0FFF1FE654FF4D80819181AC0118
:100D80004F5F5F4F408351832C9FF0012D9FF00DEB
:100D90003C9FF00D11248E0F9F1FFC01E254FF4D6C
:100DA000F0826FBF002329F0F12E110F110B00E02C
:100DB000CFCF81E090E0DF91CF911F910F91FF9015
:100DC0000895BC0180E0B5CF08957F928F929F92E5
:100DD000AF92BF92CF92DF92EF92FF920F931F9349
:100DE000CF93DF936B018A018091DC25893011F468
:100DF000000F111F6894AA24A6F8BB24B39480E0C6
:100E000091DF811107C08091C6258111F8CF802F15
:100E1000912F35C07FB6F8948090B920912CF401C1
:100E2000EE0FFF1FE654FF4DE080F180C5018E19E3
:100E30009F09E8018017910708F4EC018A9CC00122
:100E40008B9C900D9A9C900D11248E0D9F1DAE01D0
:100E5000B60182549F4D0E948B28F401EE0FFF1FB4
:100E6000E654FF4DEC0EFD1EE082F1827FBECC0EFB
:100E7000DD1E0C1B1D0B09F0C2CF80E090E0DF915E
:100E8000CF911F910F91FF90EF90DF90CF90BF9087
:100E9000AF909F908F907F900895AB01BC0180E050
:100EA00094CF0895E091E225F091E3250190F0813F
:100EB000E02D228133812E0F3F1FFC014081E40F82
:100EC000F11DE217F307A0F481818430A1F08613AD
:100ED00006C014C081818430A1F08617A9F08081FA
:100EE000E80FF11DE217F307A8F380E090E0089502
:100EF00080E090E0089580E090E008958E2F9F2F8D
:100F0000089580E090E008958E2F9F2F089580919E
:100F100010598F770C943A2408959091E4259923E1
:100F200081F1E091E225F091E3250190F081E02D3F
:100F30009481891740F5E093E025F093E125228123
:100F400033812E0F3F1FE217F307F8F4918194309D
:100F500061F49281981309C09381961306C0E093BF
:100F6000E025F093E12581E008959081E90FF11DDE
:100F7000E217F30758F3E093E025F093E12580E0D2
:100F8000089580E0089580E0089580E00895FF923C
:100F90000F931F93CF93DF93C82F60E0BEDFF82E2F
:100FA000882381F1A091E225B091E325EC2FF0E0B8
:100FB000EE0FFF1F12962D913C911397E20FF31F36
:100FC00000811181D8011696ED91FC911797199522
:100FD000682F8C2FA2DFF82E8823A1F0C091E02586
:100FE000D091E12565E0CE015DDFEC01009721F0B5
:100FF0008A810E94B825F6CFD8011296ED91FC9116
:10100000139719958F2DDF91CF911F910F91FF901D
:1010100008951F93CF93DF93182F7FDF882341F12B
:10102000C091E025D091E12565E0CE013BDFEC01E8
:10103000009749F04C815D816B818A810E94512427
:101040008111F2CF15C0A091E225B091E325812F47
:1010500090E0880F991F1296ED91FC911397E80F7D
:10106000F91F0190F081E02D0190F081E02D19959C
:10107000DF91CF911F9108950C94C4230895CF93CD
:101080008091E4258823C1F0E091E225F091E325E9
:101090000190F081E02D8481882371F0C0E08C2FD5
:1010A00076DFCF5FE091E225F091E3250190F081BA
:1010B000E02D8481C81798F31092E42581E090E038
:1010C0008093E5259093E625CF910895CF93809165
:1010D000E425882341F1E091E225F091E325A08108
:1010E000B18114968C918823F1F0C0E08C2F90E0B0
:1010F000880F991F0280F381E02DE80FF91F0190FE
:10110000F081E02D0084F185E02D309709F01995EC
:10111000CF5FE091E225F091E325A081B1811496A3
:101120008C91C81718F3CF910895EF92FF920F9307
:101130001F93CF93DF931092185910921959109260
:101140001A5910921B5910921C5910921D59209136
:101150000E5922230CF084C2809114599091155994
:10116000009709F082C278C22F7109F0A3C03091B4
:101170000F59363089F0383009F490C031119AC0D7
:10118000029741F462E070E085EE95E20E94482407
:1011900001E0E5C100E0E3C12091105930911159FF
:1011A000832F99278230910581F08330910579F161
:1011B000019709F06BC080911E2090911F20DC01E7
:1011C0006C9170E00E94482450C0E0911E20F09184
:1011D0001F208189281708F05BC0C9019927880F53
:1011E000991F880F991FE0912020F0912120E80F8E
:1011F000F91F80819181FC01628173810E944824E2
:10120000E0911659F091175982E081832EC033275F
:101210002130310561F020F02230310561F03AC013
:1012200064E070E082EA90E20E9448241EC088E9EF
:1012300090E229E003C084E990E223E0382FA2E89D
:10124000B0E2E82FF92F819190E08D939D938E2F3E
:10125000831B8217C0F3220F62E0620F609380202D
:1012600070E080E890E20E944824809114599091A7
:10127000155920911859309119598217930760F424
:10128000809318599093195901E069C100E067C132
:1012900000E065C100E063C101E061C1019741F474
:1012A00061E070E084EE95E20E94482401E057C1BD
:1012B00000E055C1213009F040C030910F593A305B
:1012C000E1F50197A1F58091E425882391F1C09182
:1012D0001259D0911359E090E225F090E325D701FF
:1012E000ED91FC918481C81730F560E08C2F15DEFC
:1012F000082F882309F433C1CE019927880F991F3D
:10130000D7011296ED91FC911397E80FF91F019008
:10131000F081E02D0680F781E02D19958093DF257F
:1013200061E070E08FED95E20E94482418C100E072
:1013300016C100E014C100E012C1223009F011C151
:1013400020910F59211106C1029789F480911259F9
:101350000E94B22490E08093DD259093DE2562E028
:1013600070E08DED95E20E94482401E0F8C000E0B5
:10137000F6C02F7109F091C080910F59833009F4A4
:10138000EBC018F48130B1F088C0853019F0893095
:1013900061F183C08091145990911559892B41F4C2
:1013A00087E897E080931A5990931B5901E0D7C0C2
:1013B00000E0D5C08091145990911559892B89F47A
:1013C0008091105990911159019769F48091E52508
:1013D0009091E6258D7F8093E5259093E62501E0A9
:1013E000BEC000E0BCC000E0BAC08091145990912A
:1013F0001559892B09F047C00E943D24882309F420
:1014000044C020911059309111593327E0911E208A
:10141000F0911F20818990E082179307C0F12FDEA1
:1014200080911059909111598093E425882389F176
:1014300099278150904C880F991F880F991FE09130
:101440002020F0912120E80FF91FE093E225F0938E
:10145000E3250190F081E02D84818823E1F0C0E054
:1014600060E08C2FD6DD082F882309F478C0CF5F89
:10147000E091E225F091E3250190F081E02D848157
:10148000C81770F36CC000E06AC000E068C000E0FC
:1014900066C001E064C001E062C0213009F58091BE
:1014A0000F598B30E9F48091145990911559892B7B
:1014B00099F48091E425882389F0C0911259D09144
:1014C00010598C2F64DD082F882309F448C06D2F34
:1014D0008C2F9FDD082F43C000E041C000E03FC0DB
:1014E000223009F03EC080910F59813019F08330CD
:1014F000B9F034C08091145990911559892B61F439
:101500008091105990911159892B41F48091125971
:101510000E94CD24082F23C000E021C000E01FC09E
:101520008091145990911559892B81F4809110590B
:1015300090911159892B61F4C2E1D9E588810E940B
:101540007E2588810E94D525082F09C000E007C0AC
:1015500000E005C000E003C000E001C000E00111B0
:1015600089C080910E598F718130C1F58091E42539
:101570008823A1F1C0911259D09113590091E2250D
:101580001091E325D801ED91FC918481C81730F5C5
:1015900060E08C2FC2DC882309F1CE019927880FE7
:1015A000991FD8011296ED91FC911397E80FF91F3E
:1015B00000811181D8011696ED91FC91179719952C
:1015C000682F8C2FAADC882349F0D8011496ED915E
:1015D000FC9115971995082F81114CC080910E59D7
:1015E0008F718230D9F58091E425882389F1E091CB
:1015F000E225F091E325A081B18114968C91882396
:1016000049F110E0212F30E0220F331F0280F381D7
:10161000E02DE20FF31FC081D181EE81FF8119958A
:10162000682F812F7ADC082F882321F1EC81FD813E
:101630001995082F81111EC01F5FE091E225F091DE
:10164000E325A081B18114968C911817D8F212C0AD
:1016500000E010C000E00EC000E00CC000E00AC0D6
:10166000822F807609F07DCF84CE322F307609F03C
:1016700078CF7ACD802FDF91CF911F910F91FF907E
:10168000EF900895CF93DF931F92CDB7DEB780918F
:10169000CF589091D058E091CB58F091CC58BE01E2
:1016A0006F5F7F4F19958981992787FD90950F90DE
:1016B000DF91CF9108959091E725992381F0862FAE
:1016C000992787FD90957DDB21E030E0892B11F093
:1016D00020E030E088279927821B930B089580E053
:1016E00090E00895CF93DF93EB018091E72581117E
:1016F00002C0188202C0DFDA8883DF91CF9108959B
:1017000081E08093E72508951092E72508951092CF
:10171000CF581092D0588BE59BE08093CD58909392
:10172000CE5882E79BE08093CB589093CC58A4DCB2
:1017300062E47BE08FE99BE00C949B280895682F7E
:101740008091CF589091D058E091CD58F091CE58DB
:10175000199599231CF48FEF9FEF089581E090E095
:101760000895D5CF0895CF93DF93C62FD0E0BE0163
:1017700094DB9C2F981B892FDF91CF910895FC015A
:101780008091E925882369F18C3980F08091EA25E0
:101790008093EB258CE98093E9256C3950F06CE956
:1017A0009091EB258091E925262F07C0861708F434
:1017B000682F6111F5CF862F0895A92FB0E0A451AD
:1017C000BA4D3C9131939F5F21509C3909F490E0D0
:1017D0002111F3CF9093EB25861B8093E925862F6B
:1017E000089580E0089581E08093E825089510929F
:1017F000E8250895882311F083CF089585CF0895B3
:101800008091E825811118C0089555DAF8949091D7
:10181000E9259F5F9093E9259091EA25E92FF0E073
:10182000E451FA4D80839B3919F41092EA2503C0E4
:101830009F5F9093EA257894EED98111E6CF0895C1
:10184000CF93DF93CDB7DEB72897CDBFDEBF80E162
:10185000E0E0F6E08683A3D6811126D080E2E0E0C6
:10186000F6E0858380E00E94BA1681E08983BE019C
:101870006F5F7F4F81E50E94DF1476D06DD328968D
:10188000CDBFDEBFDF91CF91089587E0E0EAF0E0C1
:1018900082830E9464020E949D1863DF80E090E0D2
:1018A000CFDF789490D0FECFCF93DF9324E130E068
:1018B000E0E0F6E0D0E1C0E27CEF6FEF53E040E023
:1018C000D783C783872F962FA52FB42F0197A10900
:1018D000B1090097A105B105C9F7215031092115BA
:1018E000310571F7DF91CF9108958FE068D382FFC2
:1018F00014C0409188265091892660918A26709163
:101900008B264F5F5F4F6F4F7F4F409388265093DA
:10191000892660938A2670938B2683FF03C081E01B
:10192000809390260895209192262035D1F0309111
:101930009326822F90E0830F911D60E570E00E9456
:10194000CB272F5F2093922621E9289FF001299F22
:10195000F00D1124EA5DF84D81E081938E2F9F2FC9
:10196000089580E090E0089581E080932327089512
:10197000EF92FF920F931F93CF93DF93E82E8B018B
:10198000F42ED1DFFC010097B1F082E08F0D80834F
:1019900082E08183EF012396E282FF2031F04F2D18
:1019A00050E0B801CE010E948B28CF0DD11D84E0FC
:1019B000888381E001C080E0DF91CF911F910F917A
:1019C000FF90EF900895CF92DF92EF92FF920F93E6
:1019D0001F93CF93DF93CDB7DEB7C95CD109CDBFDD
:1019E000DEBF80919026882309F481C01092902652
:1019F0008DD200918C2610918D2620918E263091CB
:101A00008F266B017C01C01AD10AE20AF30A41EA6F
:101A1000C41646E8D40641E0E406F10460F06093A1
:101A20008C2670938D2680938E2690938F2680E24D
:101A3000E0E0F6E0878347E060E886E0C8D2811105
:101A400005C061E0CE010196C8D2FAC161E0CE01C5
:101A500087539F4FC2D2C753DF4F1881C95CD04014
:101A600011230CF4EDC18091D1589091D258A091DE
:101A7000D358B091D4580196A11DB11D8093D1586F
:101A80009093D258A093D358B093D4588091A62065
:101A9000853041F548DFFC01009709F4D1C10F2ED4
:101AA000F3E0FF2EF02DF10E175F108382E08183AB
:101AB0008F010D5F1F4F8DE082836F2DC8018DD286
:101AC0004091D1585091D2586091D3587091D458C8
:101AD000F801EF0DF11D408351836283738384E02D
:101AE000848305C061E0CE01019677D2A9C18091BF
:101AF0009526811109C0109294266CE886E996E239
:101B00003EDE8093952655C1809123278230E9F0EF
:101B100018F4813039F03AC18330C1F1843009F4CE
:101B20004FC034C186E794E58093242790932527FE
:101B3000E0919426F0E0EA56F94D8081813009F079
:101B40002EC182E0809323272AC1E0919426F0E001
:101B5000EA56F94D808180932227882369F093E02B
:101B600090932327E0912427F09125278193E093F8
:101B70002427F093252713C186E794E58093242733
:101B80009093252781E08093232709C1E091942633
:101B9000F0E0EA56F94D8081E0912427F091252765
:101BA0008193E0932427F093252780912227815069
:101BB000809322278111F3C084E080932327EFC014
:101BC000E0919426F0E0EA56F94D8081843009F0E6
:101BD000D3C080917754823009F0CEC08091785480
:101BE000482F50E0FA013197EC30F10508F0BDC004
:101BF000E250FF4F0C940028809179548983BE01F4
:101C00006F5F7F4F80E0DBD6811102C081E001C0B1
:101C100082E0C753DF4F8883C95CD04041E0BE01FA
:101C200067537F4F81E0A4DEA7C0809179548983F8
:101C3000BE016F5F7F4F84E0C2D6811102C081E098
:101C400001C082E0C753DF4F8883C95CD04041E0C8
:101C5000BE0167537F4F82E08BDE8EC088EC90E040
:101C6000A0E0B0E089839A83AB83BC8344E0BE01EB
:101C70006F5F7F4F83E07CDE7FC088E3898341E034
:101C8000BE016F5F7F4F84E073DE76C08CE197D139
:101C9000898341E0BE016F5F7F4F8BE069DE6CC0DE
:101CA00083E1898341E0BE016F5F7F4F8CE060DE9E
:101CB00063C081E0898380E2E0E0F6E08683809182
:101CC0000759882331F0B3D786E0BBD285E79CE083
:101CD0007BD141E0BE016F5F7F4F85E049DE10920E
:101CE000D1581092D2581092D3581092D45885E0FF
:101CF0008093A62041C081E0898380E2E0E0F6E0A5
:101D0000858341E0BE016F5F7F4F86E031DE86E074
:101D10008093A62031C081E0898380E2E0E0F6E094
:101D2000868380910759882331F081D786E089D254
:101D300085E79CE049D141E0BE016F5F7F4F87E0BE
:101D400017DE85E08093A62017C081E0898380E2BA
:101D5000E0E0F6E0858341E0BE016F5F7F4F88E001
:101D600007DE88E08093A62007C093E0998341E0D6
:101D7000BE016F5F7F4FFCDD86E794E580932427EB
:101D80009093252781E08093232709C086E794E577
:101D9000809324279093252781E0809323278091A7
:101DA0009526815080939526809194268F5F80930D
:101DB000942680919226882309F442C0809193262C
:101DC0002091912611E9189FC0011124DC01AA5D20
:101DD000B84D11966C916D5F621B820F911D8A5DEB
:101DE000984DC1DC6091932690919126482F50E048
:101DF000169FF0011124EA5DF84D218130E02D5F3E
:101E00003F4F291B310942175307B9F46F5F8DEC1F
:101E1000689F812D1124829586958695837090E523
:101E2000899F601911246093932680919226815096
:101E3000809392261092912603C0980F909391263A
:101E4000C753DF4FCDBFDEBFDF91CF911F910F9101
:101E5000FF90EF90DF90CF900895809106558823F2
:101E600019F081E08093E1580895CF938091D5587F
:101E70009091D65801968093D5589093D658CFB765
:101E8000F894809105558F3FF1F190E0FC01EE0F41
:101E9000FF1F9C01220F331F220F331F220F331FFE
:101EA000E20FF31FE952F74A218521112CC0FC01F2
:101EB000EE0FFF1F880F991F880F991F880F991F1A
:101EC000E80FF91FE952F74A80819181A281B3811D
:101ED0002091D5583091D6582A173B07A1F40E947B
:101EE0009C018091055590E0FC01EE0FFF1F880FCB
:101EF000991F880F991F880F991FE80FF91FE95242
:101F0000F74A81E08187CFBFCF9108950F931F9348
:101F1000CF93DF93C091D558D091D6580E945901E4
:101F20002091D5583091D658C217D30799F7AE01F2
:101F300060E070E0BA0155274427A0E0B0E08A01D4
:101F40009B01082B192B2A2B3B2BC901B801DF91D0
:101F5000CF911F910F910895109206551092E1585C
:101F60001092D5581092D6588FEF809305558093D4
:101F70000455809303558093DF581092DB581092DC
:101F8000DC581092025585E39FE00E945A028DE2D0
:101F90009FE00E945F020C94110208950ED080E031
:101FA00008950895CF93DF93EC01B0DF68837983C0
:101FB0008A839B83DF91CF910895BEC70895EEC7B2
:101FC00008950C94021808950C94351808950C94F3
:101FD0003A1808950C944B1808950C9469180895B4
:101FE000EF92FF920F931F93CF93DF9387E095E5D6
:101FF00096D00CE115E5CCE0D5E50F2EF8E4EF2EF8
:10200000F7E5FF2EF02D08831983BE0187E095E5E3
:102010008DD005571F4F24960E151F05A1F7DF9190
:10202000CF911F910F91FF90EF90089560E070E0C5
:1020300087E095E596C008959F92AF92BF92CF92A8
:10204000DF92EF92FF920F931F93CF93DF936C0178
:102050005B018A019FB6F894DC0114968C91149769
:10206000882309F449C0CD91DC9141155105B9F09F
:10207000209709F444C07E01F801628173810190C8
:10208000F081E02D888199811995811109C02A81FB
:102090003B8121153105A1F17E01E901EDCF7E01E2
:1020A000209779F1AB2869F5D601ED91FC91119754
:1020B000EC17FD0729F4828193818D939C9305C0D1
:1020C0008A819B81F70182839383D60112968D9139
:1020D0009C9113978C179D0721F41296ED92FC9218
:1020E0001397F60184818150848380819181892BAB
:1020F00041F41282138205C0C0E0D0E002C09E010C
:10210000E9019FBECE01DF91CF911F910F91FF900A
:10211000EF90DF90CF90BF90AF909F900895FC011B
:10212000108211821282138214820895FC018FB7EB
:10213000F8949481911103C06083718306C0A281D9
:10214000B38112966D937C93139762837383DB0143
:1021500012961D921C92139794819F5F94838FBF58
:102160000895AB0160E070E067CF0895AF92BF9231
:10217000CF92DF92EF92FF920F931F93CF93DF9353
:10218000CDB7DEB72897CDBFDEBF40E06FE181E07D
:102190001EDF883009F047C08FE011DF8EE00FDFCF
:1021A000B82E61E08EE00DDFE0E4F6E0A1848185E9
:1021B0008C7F818769E082E004DFCE010196F2DE48
:1021C00000E416E022C0CE010596ECDE4D815E8172
:1021D0006F817885C980DA80EB80FC804C195D09BD
:1021E0006E097F094B3F51056105710570F08AE169
:1021F000E6DE80FF03C0682F6E7F02C0682F61603B
:102200008AE1DFDECE010196CDDEF801808582FF16
:10221000DACF8FE0D4DEE0E4F6E081E08487A186C7
:102220006B2D8EE0CEDE2896CDBFDEBFDF91CF9145
:102230001F910F91FF90EF90DF90CF90BF90AF90E4
:102240000895CF93C82F909108599F3051F58F3042
:1022500009F4EEC010920C5983EB93E1B5DEE0E493
:10226000F6E081E084878185836081879FB7F89459
:10227000789488E0868380910C598823E1F39FBF8E
:102280008FE09DDE81EA93E19FDE68E08EE099DEDB
:1022900088E080930859C83009F4CCC0C330C1F439
:1022A000CBC09032A9F4803209F4C8C088E0E0E4E1
:1022B000F6E0868381E083DE8830E1F78093085979
:1022C000C4D030D3C83009F4BBC0C33009F4BAC09D
:1022D0004C2F50E0FA013397EE31F10508F09FC022
:1022E000E65FFE4F0C94002863E082E06ADE8FE038
:1022F00066DE20E140E06FEF8EE06CDEC03239F444
:1023000060E182E05EDE80E28093085908C020E14F
:1023100040E06FEF8EE05EDE8FE08093085988E04A
:10232000E0E4F6E0858380E090E001968C3891054A
:10233000E1F78091085987C080910859883009F4E5
:102340006EC068E082E03DDE6AC080910859883046
:1023500009F465C063E082E034DE61C08091085911
:10236000883059F020F4863009F059C008C0863111
:1023700031F0893109F053C002C0F8DE50C069E085
:1023800082E01FDE4CC080910859883021F08930EE
:1023900009F445C002C0EADE42C064E082E011DE1A
:1023A0003EC080910859893041F018F4883049F0D6
:1023B00036C0863111F0893191F566E082E001DEA8
:1023C0002EC0D4DE66E082E0FCDD29C08091085991
:1023D000883061F018F4863011F504C0893011F0AE
:1023E0008931E9F466E182E0ECDD19C0BFDE66E127
:1023F00082E0E7DD14C080910859883061F018F45C
:10240000863069F404C0893011F0863141F469E105
:1024100082E0D7DD04C0AADE69E182E0D2DD40E0DF
:102420006FE181E0D4DD809308598F31C1F30BC097
:102430008FE009C088E007C088E005C080E203C0E3
:1024400088E001C088E0CF910895CF9320E043E079
:1024500068E083E0BFDD21E040E067E083E0BADDD3
:102460000E947D28C92F682F8DE2ABDD2C2F40E024
:1024700067E08EE2AFDD21E046E060EC8EE2AADDAF
:1024800021E045E060E28EE2A5DD21E047E060E882
:102490008CE0A0DD68E08EE094DD6FEF86E191DDF9
:1024A000CF910895FF920F931F93CF93DF9386E10F
:1024B00086DD082F61EC86E184DDE0E4F6E0F1845E
:1024C00081858C7F818786E0BCDE8630E1F720E065
:1024D00047E060E885E17EDD18E0C0E0D0E045E05F
:1024E00060E686E074DDCC0FDD1FCC0FDD1FC82B4E
:1024F0001150A9F783E0A5DE8FE061DDE0E4F6E0AE
:1025000081E08487F186CE010E948028602F86E1D9
:1025100058DDDF91CF911F910F91FF900895CF93D8
:10252000DF93D82F88E0E0E4F6E0868320E030E017
:102530002F5F3F4F283483E03807D1F781E0E0E494
:10254000F6E0868320E030E02F5F3F4F28323105F0
:10255000D9F781E0E0E4F6E08583CBE020E030E0ED
:102560002F5F3F4F203981E03807D1F740E06FE11E
:1025700081E02DDDC15079F0883081F780930859D2
:1025800091DF63DFD11170D1CDD110920D5910922E
:10259000E25880E001C085E8DF91CF9108952F9245
:1025A0003F924F925F926F927F928F929F92AF92E3
:1025B000BF92CF92DF92EF92FF920F931F93CF9330
:1025C000DF93CDB7DEB72A97CDBFDEBFE7DC811141
:1025D0009DC0E0E4F6E081E0858388E0868380E0CA
:1025E00090E00196883225E09207D9F781E0E0E497
:1025F000F6E0868380E090E0019688329105E1F76D
:1026000081E0E0E4F6E085831AE003C0115009F4AC
:1026100081C080E090E001968039E1E09E07D9F723
:102620008CE1CDDC8B3091F768E082E0CADC1BE006
:1026300080E090E001968039F1E09F07D9F740E013
:102640006FE181E0C4DC115009F464C0883081F787
:102650008093085981E063DF81115AC048E050E05F
:102660006FEF70E0CE0101960E9494280F2EFAEED3
:102670008F2EF8E59F2EF02D0F2EF2EF6F2EF8E53E
:102680007F2EF02D08C00E947D28F80181938F01D4
:10269000E615F705C1F7F4011081218032804380EF
:1026A0005480B581F681F987F401F781FA87212FEB
:1026B000322D432D542D652D7B2F89859F2FA0E032
:1026C0000E94192861F0A980BA80CB80DC80ED805F
:1026D000FE800F81A8851A2F0E94102811F4840112
:1026E000D2CF81EA93E170DCE0E4F6E0818583609B
:1026F000818776DC8BE89ADC809348579093495722
:1027000083EE98E50CDD73D380E005C085E803C057
:1027100085E801C085E82A96CDBFDEBFDF91CF9165
:102720001F910F91FF90EF90DF90CF90BF90AF90EF
:102730009F908F907F906F905F904F903F902F90E1
:1027400008958FE03CDC83FF0DC090910D599130CE
:1027500041F486FF03C081E0CEC2089580E0CBC281
:10276000089577C208958FE02ADC84FF03C081E0DA
:1027700080930C59089585FD03C0982F9F7304C062
:10278000982F91959F719195EEE5F2E0249129178C
:1027900054F48491803EB4F08032B4F48823CCF4B5
:1027A0008F71806216C0EDE6F2E0249192178CF4EE
:1027B0008491803E5CF080325CF4882354F48F7105
:1027C000806207C080E205C08FE103C080E201C0E3
:1027D0008FE1806808952AE031E02093FA58309321
:1027E000FB589AE09093035992E0909304598230F9
:1027F000A9F018F4882331F035C08031D9F0813147
:1028000029F130C020E040E067E08CE0E3DB20E02D
:1028100042E064E087E1DEDB81E0089521E040E012
:1028200067E08CE0D7DB21E042E064E087E1D2DBC7
:1028300081E0089522E040E067E08CE0CBDB21E01E
:1028400042E064E087E1C6DB81E0089523E040E0F8
:1028500067E08CE0BFDB21E042E064E087E1BADBC7
:1028600081E0089580E0089584E08093FE5823E09D
:102870002093FF588FEF9FEF8093F8589093F9586B
:102880008093F6589093F7588FE08093FD5880E03E
:1028900098EFAFEFB7E08093F2589093F358A0937E
:1028A000F458B093F558109202598AE091E0809361
:1028B000FA589093FB588AE08093035982E0809302
:1028C000045985E0809305592093065984E853DF25
:1028D0008093015981E08093FC58109200598093B5
:1028E0000759089585FD03C0282F2F7304C0282F92
:1028F00021952F712195EEE5F2E0949129173CF492
:10290000EFE5F2E081E09491291734F001C080E016
:1029100092173CF4815008958F5F3196803199F77A
:1029200080E008951F93CF93DF93CAEED8E56E85BC
:1029300082E247DB6F8583E244DB14E26991812FF9
:1029400040DB1F5F1C32D1F7CAEED8E56C8580E210
:1029500038DB6D8581E235DB2091FC5845E060E68F
:1029600088E038DB2091FF5840E06FE08FE232DBF7
:102970002091005943E068E08EE22CDB209105595C
:1029800044E060EF8FE226DB8091025924DF209142
:10299000FD5840E06FE188E01DDB80910159A2DF26
:1029A000282F40E06FE085E015DB809107598823F0
:1029B00011F086E046DCDF91CF911F9108951F93BF
:1029C000CF93DF93EB0190910D59943009F4FCC043
:1029D000813579F0893519F08E3461F505C088812B
:1029E0008093065980E01FC188818093FE5880E063
:1029F0001AC181E09881911101C080E0809307594C
:102A0000882391F014D18091485790914957892B90
:102A100039F489E016DC81E08093E25880E003C15C
:102A200086E00FDC80E0FFC088E00BDC1092E2580B
:102A300080E0F9C0309108593F3009F4C7C08B30AD
:102A400009F4B9C078F4823009F483C020F48823F3
:102A500009F446C0BDC0833009F489C0843009F44C
:102A600058C0B6C0833569F128F48F3451F08035F1
:102A7000C9F0AEC0873509F45DC0803F09F480C05D
:102A8000A7C088818093FF5890910559981710F43A
:102A90009093FF582091FF5840E06FE08FE29ADA60
:102AA00080E0C1C088819981682F8093F858909305
:102AB000F95882E286DA6091F95883E282DA80E09E
:102AC000B2C088819981682F8093F6589093F75807
:102AD00080E277DA6091F75881E273DA80E0A3C090
:102AE000911178C0288180E098EFAFEFB7E0022E17
:102AF00004C0B695A795979587950A94D2F780FF5D
:102B00006BC0383009F470C088E09BDB8830E1F797
:102B100073C0911163C0383009F480C088E091DB44
:102B20008830E1F774C0DD2309F45AC0C09302591C
:102B300080E079C02881209305598091FF5828179B
:102B400010F42093FF5844E060EF8FE243DA80E016
:102B50006AC08881C1E0D9E588830DDE8883C2DE42
:102B6000282F40E06FE085E035DA80E05CC0288106
:102B70002093FC5845E060E688E02CDA80E053C002
:102B8000788169815A814B813C812D819E818F8121
:102B9000EAEEF8E5708361835283438334832583AF
:102BA00096838783EF0114E26991812F0ADA1F5F10
:102BB0001C32D1F717C028812093005943E068E008
:102BC0008EE208DA80E02FC086E82DC081E82BC0B5
:102BD00084EF29C086E827C088EE25C086E823C098
:102BE00088EE21C080E01FC02093FD5840E06FE1D7
:102BF00088E0F0D980E017C028812093FD5840E09C
:102C00006FE188E0E7D986E11CDB80E00CC0C88179
:102C10008C2FE1DDD82F86E114DB85CFC8818C2F86
:102C2000DADDD82F80CFDF91CF911F910895809169
:102C300008598F3011F0803241F488E002DB88308F
:102C400031F481E0AED980E0089582E8089585E806
:102C50000895EF92FF920F931F93CF93DF931F92EC
:102C60001F92CDB7DEB7E0914857F09149573097A2
:102C700029F461E0CE010296B0D934C000811181FF
:102C800080910759882331F047E060E886E09FD9BA
:102C9000882341F161E0CE0101969FD969816623C5
:102CA0000CF16D5F8BE890E07C01E61AF108E00E14
:102CB000F11EC70192D9F801E782F086609148576A
:102CC0007091495783EE98E531DA8BE8AFD980935C
:102CD000485790934957892B29F489E0B2DA81E06B
:102CE0008093E2580F900F90DF91CF911F910F9139
:102CF000FF90EF900895882321F087E080934A5752
:102D000006C045E060EE82E062D980934A57809128
:102D10004B578823E9F080914C578823C9F0809164
:102D20004A578530A9F489E18CDA8931E1F788E0E6
:102D3000E0E4F6E0858300000000868380914C5734
:102D4000815080934C57811106C010924B5703C09D
:102D500082E080930D598091485790914957892B73
:102D600031F489E06EDA81E08093E258089586E1DB
:102D700068CA0895CF93C82F803168F4282F40E0A7
:102D80006FE085E127D940E06FE085E120D98C1321
:102D900004C080E003C088EE01C085E8CF910895AB
:102DA000811123C0FB018081803D2CF08FEC80934A
:102DB0004D572FE014C0863A2CF485EA80934D5786
:102DC00020E00DC080934D57992787FD9095855A37
:102DD0009F4F63E070E00E94CB2721E0260F40E088
:102DE0006FE085E1F7D880E0089584EF089585EAE3
:102DF00080934D576DE477E580E0D2DF80E0089561
:102E00000C94180208950C9450020895E0E0F8E044
:102E100080A191A10895E0E0F8E087818C7F87830D
:102E20008781878380E184870895E0E0F8E080E18E
:102E3000848787818C7F87838781836087830895D8
:102E4000E0E0F8E086818C7F8683868186838485B6
:102E500081608487089580E098E00C94FC1F0895B9
:102E6000E0E0F8E080A791A708958FB7F89408955F
:102E70008FBF0895CF93DF9380E098E00E94821F78
:102E800060E077E180E098E00E947620C0E0D8E042
:102E90008981887F89838FEF9FEF8EA39FA388818D
:102EA000807F816088838E818C7F8E838E8183601A
:102EB0008E8363E077E180E098E00E94B42089810E
:102EC000806189838F818C7F8F838F818F8388E15D
:102ED000DF91CF9108951F920F920FB60F92112498
:102EE0000BB60F922F933F934F935F936F937F9304
:102EF0008F939F93AF93BF93EF93FF9381E0E0E4B1
:102F0000F6E08487E0914E57F0914F57309709F0E3
:102F10001995FF91EF91BF91AF919F918F917F9103
:102F20006F915F914F913F912F910F900BBE0F903A
:102F30000FBE0F901F901895CF92DF92EF92FF92E5
:102F40000F931F9380EC98E00E944903C12CD12C71
:102F5000760100EC16EC2DE230E040E067EA70E22A
:102F600080EC98E00E946B03E0ECF8E080818064E4
:102F7000808340E050E064E080E496E00E9421031A
:102F8000E0E4F6E081E0828B94E0928784871F91F1
:102F90000F91FF90EF90DF90CF9008951F93CF9304
:102FA000DF931F921F92CDB7DEB78A8319821FB7B6
:102FB000F8948A8180688A8367EA70E280EC98E0FE
:102FC0000E94AF0341E050E0BE016E5F7F4F80EC96
:102FD00098E00E948B0341E050E0BE016F5F7F4F9D
:102FE00080EC98E00E949B0367EA70E280EC98E036
:102FF0000E94C5031FBF89810F900F90DF91CF9171
:103000001F9108951F93CF93DF931F921F92CDB707
:10301000DEB789836A831FB7F8948981806C8983BE
:1030200067EA70E280EC98E00E94AF0341E050E074
:10303000BE016F5F7F4F80EC98E00E948B0341E000
:1030400050E0BE016E5F7F4F80EC98E00E948B03E2
:1030500067EA70E280EC98E00E94C5031FBF0F9002
:103060000F90DF91CF911F91089580934E579093C9
:103070004F570895CF93DF93D62FC42F8FDF8D2323
:10308000682F70E0CB0102C095958795CA95E2F74D
:10309000DF91CF9108950F931F93CF93DF93C82FA4
:1030A000D62F142F022F7ADF6D2F60958623202FC5
:1030B00030E0A90102C0440F551F1A95E2F74D23D5
:1030C000682F642B8C2F9EDFDF91CF911F910F9182
:1030D0000895EF92FF920F931F93CF93DF931F9268
:1030E000CDB7DEB78C01E62EFFB6F89467EA70E242
:1030F00080EC98E00E94AF0380E2898341E050E0D9
:10310000BE016F5F7F4F80EC98E00E948B034E2DD5
:1031100050E0B80180EC98E00E949B0367EA70E2FF
:1031200080EC98E00E94C503FFBE0F90DF91CF9125
:103130001F910F91FF90EF90089543E050E060E100
:1031400080E096E00E94210343E050E060E280E0EE
:1031500096E00E94210343E050E060E880E496E0BE
:103160000E94210343E050E060E280E496E00E9488
:10317000210340E050E060E480E496E00E942103F7
:1031800043E050E060E180E496E00E94210343E0E8
:1031900050E061E080E496E00E94210343E050E0CB
:1031A00068E080E496E00C94210308951BBEFC01C6
:1031B00028ED24BF608308954091CA01E62FF72FC0
:1031C0008093CA0184914093CA010895CF92DF92FF
:1031D000EF92FF920F931F93CF93DF93EC016A015D
:1031E0007B01DB01CA010197A109B109BC01CD0135
:1031F000600F711F821F931FA70196010E94DE2797
:103200002138310541055105F8F4213460F42132AB
:1032100060F4213160F4293060F4253060F423300B
:1032200060F090E00BC093E009C092E007C092E824
:1032300005C091E003C091E801C090E888818C77D7
:10324000892B888381E001C08FEFDF91CF911F919F
:103250000F91FF90EF90DF90CF9008951F920F9203
:103260000FB60F9211240BB60F922F933F934F93EB
:103270005F936F937F938F939F93AF93BF93EF93DE
:10328000FF93E0919657F0919757309709F0199571
:10329000FF91EF91BF91AF919F918F917F916F912E
:1032A0005F914F913F912F910F900BBE0F900FBEEA
:1032B0000F901F9018951F920F920FB60F92112426
:1032C0000BB60F922F933F934F935F936F937F9320
:1032D0008F939F93AF93BF93EF93FF93E091945796
:1032E000F0919557309709F01995FF91EF91BF91A3
:1032F000AF919F918F917F916F915F914F913F918E
:103300002F910F900BBE0F900FBE0F901F9018952E
:103310001F920F920FB60F9211240BB60F922F939C
:103320003F934F935F936F937F938F939F93AF934D
:10333000BF93EF93FF93E0919257F091935730979B
:1033400009F01995FF91EF91BF91AF919F918F91E6
:103350007F916F915F914F913F912F910F900BBE95
:103360000F900FBE0F901F9018951F920F920FB6DF
:103370000F9211240BB60F922F933F934F935F93AD
:103380006F937F938F939F93AF93BF93EF93FF932D
:10339000E0919057F0919157309709F01995FF916E
:1033A000EF91BF91AF919F918F917F916F915F91BD
:1033B0004F913F912F910F900BBE0F900FBE0F902A
:1033C0001F9018951F920F920FB60F9211240BB6F3
:1033D0000F922F933F934F935F936F937F938F93AE
:1033E0009F93AF93BF93EF93FF93E0918E57F0912C
:1033F0008F57309709F01995FF91EF91BF91AF91D9
:103400009F918F917F916F915F914F913F912F91FC
:103410000F900BBE0F900FBE0F901F9018951F922C
:103420000F920FB60F9211240BB60F922F933F936A
:103430004F935F936F937F938F939F93AF93BF93BC
:10344000EF93FF93E0918C57F0918D57309709F0EF
:103450001995FF91EF91BF91AF919F918F917F91BE
:103460006F915F914F913F912F910F900BBE0F90F5
:103470000FBE0F901F9018951F920F920FB60F92CC
:1034800011240BB60F922F933F934F935F936F933B
:103490007F938F939F93AF93BF93EF93FF93E091AD
:1034A0008A57F0918B57309709F01995FF91EF915A
:1034B000BF91AF919F918F917F916F915F914F914C
:1034C0003F912F910F900BBE0F900FBE0F901F904A
:1034D00018951F920F920FB60F9211240BB60F92F0
:1034E0002F933F934F935F936F937F938F939F930C
:1034F000AF93BF93EF93FF93E0918857F091895773
:10350000309709F01995FF91EF91BF91AF919F917D
:103510008F917F916F915F914F913F912F910F907C
:103520000BBE0F900FBE0F901F9018951F920F9219
:103530000FB60F9211240BB60F922F933F934F9318
:103540005F936F937F938F939F93AF93BF93EF930B
:10355000FF93E0918657F0918757309709F01995BE
:10356000FF91EF91BF91AF919F918F917F916F915B
:103570005F914F913F912F910F900BBE0F900FBE17
:103580000F901F9018951F920F920FB60F92112453
:103590000BB60F922F933F934F935F936F937F934D
:1035A0008F939F93AF93BF93EF93FF93E0918457D3
:1035B000F0918557309709F01995FF91EF91BF91E0
:1035C000AF919F918F917F916F915F914F913F91BB
:1035D0002F910F900BBE0F900FBE0F901F9018955C
:1035E0001F920F920FB60F9211240BB60F922F93CA
:1035F0003F934F935F936F937F938F939F93AF937B
:10360000BF93EF93FF93E0918257F09183573097E8
:1036100009F01995FF91EF91BF91AF919F918F9113
:103620007F916F915F914F913F912F910F900BBEC2
:103630000F900FBE0F901F9018951F920F920FB60C
:103640000F9211240BB60F922F933F934F935F93DA
:103650006F937F938F939F93AF93BF93EF93FF935A
:10366000E0918057F0918157309709F01995FF91BB
:10367000EF91BF91AF919F918F917F916F915F91EA
:103680004F913F912F910F900BBE0F900FBE0F9057
:103690001F9018951F920F920FB60F9211240BB620
:1036A0000F922F933F934F935F936F937F938F93DB
:1036B0009F93AF93BF93EF93FF93E0917E57F09169
:1036C0007F57309709F01995FF91EF91BF91AF9116
:1036D0009F918F917F916F915F914F913F912F912A
:1036E0000F900BBE0F900FBE0F901F9018951F925A
:1036F0000F920FB60F9211240BB60F922F933F9398
:103700004F935F936F937F938F939F93AF93BF93E9
:10371000EF93FF93E0917C57F0917D57309709F03C
:103720001995FF91EF91BF91AF919F918F917F91EB
:103730006F915F914F913F912F910F900BBE0F9022
:103740000FBE0F901F9018951F920F920FB60F92F9
:1037500011240BB60F922F933F934F935F936F9368
:103760007F938F939F93AF93BF93EF93FF93E091DA
:103770007A57F0917B57309709F01995FF91EF91A7
:10378000BF91AF919F918F917F916F915F914F9179
:103790003F912F910F900BBE0F900FBE0F901F9077
:1037A00018951F920F920FB60F9211240BB60F921D
:1037B0002F933F934F935F936F937F938F939F9339
:1037C000AF93BF93EF93FF93E0917857F0917957C0
:1037D000309709F01995FF91EF91BF91AF919F91AB
:1037E0008F917F916F915F914F913F912F910F90AA
:1037F0000BBE0F900FBE0F901F9018951F920F9247
:103800000FB60F9211240BB60F922F933F934F9345
:103810005F936F937F938F939F93AF93BF93EF9338
:10382000FF93E0917657F0917757309709F019950B
:10383000FF91EF91BF91AF919F918F917F916F9188
:103840005F914F913F912F910F900BBE0F900FBE44
:103850000F901F9018951F920F920FB60F92112480
:103860000BB60F922F933F934F935F936F937F937A
:103870008F939F93AF93BF93EF93FF93E091745710
:10388000F0917557309709F01995FF91EF91BF911D
:10389000AF919F918F917F916F915F914F913F91E8
:1038A0002F910F900BBE0F900FBE0F901F90189589
:1038B0001F920F920FB60F9211240BB60F922F93F7
:1038C0003F934F935F936F937F938F939F93AF93A8
:1038D000BF93EF93FF93E0917257F0917357309736
:1038E00009F01995FF91EF91BF91AF919F918F9141
:1038F0007F916F915F914F913F912F910F900BBEF0
:103900000F900FBE0F901F9018951F920F920FB639
:103910000F9211240BB60F922F933F934F935F9307
:103920006F937F938F939F93AF93BF93EF93FF9387
:10393000E0917057F0917157309709F01995FF9108
:10394000EF91BF91AF919F918F917F916F915F9117
:103950004F913F912F910F900BBE0F900FBE0F9084
:103960001F9018951F920F920FB60F9211240BB64D
:103970000F922F933F934F935F936F937F938F9308
:103980009F93AF93BF93EF93FF93E0916E57F091A6
:103990006F57309709F01995FF91EF91BF91AF9153
:1039A0009F918F917F916F915F914F913F912F9157
:1039B0000F900BBE0F900FBE0F901F9018951F9287
:1039C0000F920FB60F9211240BB60F922F933F93C5
:1039D0004F935F936F937F938F939F93AF93BF9317
:1039E000EF93FF93E0916C57F0916D57309709F08A
:1039F0001995FF91EF91BF91AF919F918F917F9119
:103A00006F915F914F913F912F910F900BBE0F904F
:103A10000FBE0F901F9018951F920F920FB60F9226
:103A200011240BB60F922F933F934F935F936F9395
:103A30007F938F939F93AF93BF93EF93FF93E09107
:103A40006A57F0916B57309709F01995FF91EF91F4
:103A5000BF91AF919F918F917F916F915F914F91A6
:103A60003F912F910F900BBE0F900FBE0F901F90A4
:103A700018951F920F920FB60F9211240BB60F924A
:103A80002F933F934F935F936F937F938F939F9366
:103A9000AF93BF93EF93FF93E0916857F09169570D
:103AA000309709F01995FF91EF91BF91AF919F91D8
:103AB0008F917F916F915F914F913F912F910F90D7
:103AC0000BBE0F900FBE0F901F9018951F920F9274
:103AD0000FB60F9211240BB60F922F933F934F9373
:103AE0005F936F937F938F939F93AF93BF93EF9366
:103AF000FF93E0916657F0916757309709F0199559
:103B0000FF91EF91BF91AF919F918F917F916F91B5
:103B10005F914F913F912F910F900BBE0F900FBE71
:103B20000F901F9018951F920F920FB60F921124AD
:103B30000BB60F922F933F934F935F936F937F93A7
:103B40008F939F93AF93BF93EF93FF93E09164574D
:103B5000F0916557309709F01995FF91EF91BF915A
:103B6000AF919F918F917F916F915F914F913F9115
:103B70002F910F900BBE0F900FBE0F901F901895B6
:103B80001F920F920FB60F9211240BB60F922F9324
:103B90003F934F935F936F937F938F939F93AF93D5
:103BA000BF93EF93FF93E0916257F0916357309783
:103BB00009F01995FF91EF91BF91AF919F918F916E
:103BC0007F916F915F914F913F912F910F900BBE1D
:103BD0000F900FBE0F901F9018951F920F920FB667
:103BE0000F9211240BB60F922F933F934F935F9335
:103BF0006F937F938F939F93AF93BF93EF93FF93B5
:103C0000E0916057F0916157309709F01995FF9155
:103C1000EF91BF91AF919F918F917F916F915F9144
:103C20004F913F912F910F900BBE0F900FBE0F90B1
:103C30001F9018951F920F920FB60F9211240BB67A
:103C40000F922F933F934F935F936F937F938F9335
:103C50009F93AF93BF93EF93FF93E0915E57F091E3
:103C60005F57309709F01995FF91EF91BF91AF9190
:103C70009F918F917F916F915F914F913F912F9184
:103C80000F900BBE0F900FBE0F901F9018951F92B4
:103C90000F920FB60F9211240BB60F922F933F93F2
:103CA0004F935F936F937F938F939F93AF93BF9344
:103CB000EF93FF93E0915C57F0915D57309709F0D7
:103CC0001995FF91EF91BF91AF919F918F917F9146
:103CD0006F915F914F913F912F910F900BBE0F907D
:103CE0000FBE0F901F9018951F920F920FB60F9254
:103CF00011240BB60F922F933F934F935F936F93C3
:103D00007F938F939F93AF93BF93EF93FF93E09134
:103D10005A57F0915B57309709F01995FF91EF9141
:103D2000BF91AF919F918F917F916F915F914F91D3
:103D30003F912F910F900BBE0F900FBE0F901F90D1
:103D400018951F920F920FB60F9211240BB60F9277
:103D50002F933F934F935F936F937F938F939F9393
:103D6000AF93BF93EF93FF93E0915857F09159575A
:103D7000309709F01995FF91EF91BF91AF919F9105
:103D80008F917F916F915F914F913F912F910F9004
:103D90000BBE0F900FBE0F901F9018951F920F92A1
:103DA0000FB60F9211240BB60F922F933F934F93A0
:103DB0005F936F937F938F939F93AF93BF93EF9393
:103DC000FF93E0915657F0915757309709F01995A6
:103DD000FF91EF91BF91AF919F918F917F916F91E3
:103DE0005F914F913F912F910F900BBE0F900FBE9F
:103DF0000F901F9018951F920F920FB60F921124DB
:103E00000BB60F922F933F934F935F936F937F93D4
:103E10008F939F93AF93BF93EF93FF93E09154578A
:103E2000F0915557309709F01995FF91EF91BF9197
:103E3000AF919F918F917F916F915F914F913F9142
:103E40002F910F900BBE0F900FBE0F901F901895E3
:103E50001F920F920FB60F9211240BB60F922F9351
:103E60003F934F935F936F937F938F939F93AF9302
:103E7000BF93EF93FF93E0915257F09153573097D0
:103E800009F01995FF91EF91BF91AF919F918F919B
:103E90007F916F915F914F913F912F910F900BBE4A
:103EA0000F900FBE0F901F9018951F920F920FB694
:103EB0000F9211240BB60F922F933F934F935F9362
:103EC0006F937F938F939F93AF93BF93EF93FF93E2
:103ED000E0915057F0915157309709F01995FF91A3
:103EE000EF91BF91AF919F918F917F916F915F9172
:103EF0004F913F912F910F900BBE0F900FBE0F90DF
:103F00001F901895CF93CFB7F894282F392F2115EC
:103F100088E0380759F461E083E090E00E94D40221
:103F200064E083E090E00E94D4025BC0203488E02B
:103F3000380759F462E083E090E00E94D40264E024
:103F400083E090E00E94D4024CC0211589E038073C
:103F500059F461E084E090E00E94D40264E084E0DF
:103F600090E00E94D4023DC0203489E0380759F423
:103F700062E084E090E00E94D40264E084E090E09B
:103F80000E94D4022EC021158AE0380759F461E05E
:103F900085E090E00E94D40264E085E090E00E9419
:103FA000D4021FC020348AE0380759F462E085E06B
:103FB00090E00E94D40264E085E090E00E94D40288
:103FC00010C021153B4059F461E086E090E00E946A
:103FD000D40264E086E090E00E94D40202C0CFBF29
:103FE00009C08FB7F894E6ECF8E590819F5F908365
:103FF0008FBFCFBFCF910895CF93CFB7F8942FB78E
:10400000F894E6ECF8E53081315030832FBF282F4B
:10401000392F211588E0380759F461E083E090E0FA
:104020000E94DF0264E083E090E00E94DF025BC058
:10403000203488E0380759F462E083E090E00E9481
:10404000DF0264E083E090E00E94DF024CC02115B3
:1040500089E0380759F461E084E090E00E94DF02D3
:1040600064E084E090E00E94DF023DC0203489E0FB
:10407000380759F462E084E090E00E94DF0264E0D7
:1040800084E090E00E94DF022EC021158AE038070C
:1040900059F461E085E090E00E94DF0264E085E091
:1040A00090E00E94DF021FC020348AE0380759F4F4
:1040B00062E085E090E00E94DF0264E085E090E04D
:1040C0000E94DF0210C021153B4059F461E086E0F8
:1040D00090E00E94DF0264E086E090E00E94DF0250
:1040E00002C0CFBF01C0CFBFCF910895811528E096
:1040F000920729F4609396577093975708958034E8
:1041000028E0920729F460938A5770938B5708959B
:10411000811529E0920729F46093825770938357A1
:104120000895803429E0920729F4609376577093BC
:104130007757089581152AE0920729F460936E5706
:1041400070936F57089580342AE0920729F46093A2
:10415000625770936357089581159B4021F46093D3
:104160005A5770935B570895811528E0920729F4F8
:1041700060939257709393570895803428E0920784
:1041800029F460938657709387570895811529E025
:10419000920729F460937E5770937F570895803477
:1041A00029E0920729F4609372577093735708952A
:1041B00081152AE0920729F460936A5770936B5730
:1041C000089580342AE0920729F460935E57709333
:1041D0005F57089581159B4021F460935657709363
:1041E00057570895811118C09091C458992389F0A8
:1041F0009FB7F894E6ECF8E52081215020839FBF1B
:1042000008C09FB7F894E6ECF8E520812F5F208383
:104210009FBF8093C45808959091C458992389F3FF
:10422000F8CF0F93E8ECF4E080818F7D808380816C
:104230008F7D8083E8E9F8E502E0059310929A58B3
:1042400010929B5800E2069300E40693E0E9F8E53B
:1042500000E2069300E4069310921A5910921B593B
:1042600010921C5910921D591092185910921959F8
:1042700010928158109282580F9108950F9385E003
:1042800090E08093815890938258E9E9F8E504E042
:104290000593E1E9F8E504E005930F9108950F9384
:1042A00083E090E0809381589093825810929A58BE
:1042B00010929B58E8E9F8E502E006930F91089503
:1042C000E0911A59F0911B59309709F0199508950A
:1042D0000F93CF93DF9380918158909182580397E9
:1042E00019F4EEDF9EDF63C080917D5890917E5877
:1042F000C0911859D0911959C81BD90B89F5209133
:104300007F5830918058820F931F80937F589093ED
:10431000805820911459309115598217930721F034
:1043200080919857882359F084E090E080938158D9
:1043300090938258E0E9F8E502E0069338C0E091F6
:104340001C59F0911D59309799F01995882381F0E7
:1043500010927D5810927E58C0911859D0911959D9
:10436000C034D10528F010929857C0E4D0E003C0C3
:1043700081E080939857C0939A58D0939B5880912E
:104380007D5890917E582091165930911759280FD9
:10439000391F20939C5830939D58C80FD91FC09344
:1043A0007D58D0937E58E8E9F8E502E00693DF9166
:1043B000CF910F910895FC018181877090E0FC01FD
:1043C0003197E730F10518F4E85DFE4F19C688E033
:1043D00090E0089580E290E0089580E490E00895F0
:1043E00080E890E0089580E091E0089580E092E018
:1043F00008958FEF93E0089580E190E00895282FCD
:104400002F7030E0220F331F992787FD9095882762
:10441000990F881F9927820F931F02979C01220FE3
:10442000331F220F331F220F331F820F931F875E0C
:10443000974A08950F93CF938091CC0480FF6BC06F
:1044400081E08093CC04E0E9F8E500E80693E8E930
:10445000F8E500E806938093CA04E0E9F8E500E196
:1044600006938091815890918258009729F0039784
:10447000029708F425DFD5DE8091925890919358E9
:10448000089709F04AC088E0EDE3F8E5AEE0B9E549
:1044900001900D928A95E1F7E8ECF4E0808180626A
:1044A00080838081806280830E949508C82F81115B
:1044B00003C0E4DEC1E032C080910E59882384F449
:1044C00010927F581092805810927D5810927E580A
:1044D00022E030E02093815830938258F9DE1EC0EC
:1044E0002091145930911559232B11F4D8DE16C0A0
:1044F00010927F581092805810927D5810927E58DA
:1045000021E030E02093815830938258E0E9F8E5CB
:1045100002E0069303C0C0E001C0C1E08C2FCF9140
:104520000F910895BF92CF92DF92EF92FF920F9377
:104530001F93CF93DF93B82E62DFEC011B2D111F69
:104540001127111F8B2D8F70E82EF12CEE0CFF1C04
:10455000E10EF11CC701880F991F880F991F880F62
:10456000991F9C012057374A7901C90124DF6C014A
:10457000112309F459C0D70116962D913C91179734
:104580008D819E81280F391F2D833E838B819C81D5
:1045900028173907B9F1FC01E21BF30B9F01211524
:1045A000F4E03F0738F02FEF33E0C901B601DFD464
:1045B000281B390B888181FF09C0C901B601D7D4F6
:1045C00041E0892B09F040E0942F01C090E0888100
:1045D00090FB81F98883D70116961D921C9217973C
:1045E00012962D933C93139729813A818D819E8158
:1045F000820F931F14968D939C931597F70102E0F9
:10460000069395C0888181FF83C08D7F8883D70101
:1046100016961D921C92179712961D921C92139734
:10462000F70102E0069383C0D70112960D911C9109
:104630001397888182FF13C0E981FA812D813E8121
:104640008B819C81B60193D4B0E4BB9EB001112450
:10465000675A784AAC01CF01820F931F5CD52D8138
:104660003E81200F311F2D833E83EB81FC81E217B9
:10467000F30710F4ED83FE83D70116968D919C917C
:1046800017978017910709F043C08D819E81E81725
:10469000F90709F43DC0E81BF90BE115B4E0FB078D
:1046A00040F0EFEFF3E0CF01B60161D4E81BF90B66
:1046B00005C0CF01B6015BD4E81BF90BD7011296F8
:1046C0001D921C921397EC15FD0578F48881846087
:1046D0008883B0E4BB9EC0011124875A984AF70131
:1046E00084839583C682D7820FC029813A818D81C8
:1046F0009E81820F931FD70114968D939C931597DB
:104700001696ED93FC931797F70102E006930FC0FE
:10471000888180FF0CC08E7F8883EF81F885309779
:1047200031F06D817E814B2D80E090E01995DF9115
:10473000CF911F910F91FF90EF90DF90CF90BF909E
:104740000895CF93CFB7F89481E04CDDEAECF4E024
:1047500080E4808380E28083E1ECF4E0808181600A
:104760008083A9ECB4E08C9182608C93E8ECF4E057
:104770008081806480838C9181608C93808180684B
:104780008083CFBFCF910895CF93DF93C0E6D0E071
:10479000188280E30E94E902E0ECF4E0808180640A
:1047A000808381E08883CFB7F8941092915810925B
:1047B00099581092A1581092A9581092B15810927D
:1047C000B958E9E1F8E580818E7F8083E2E2F8E57F
:1047D00080818E7F8083EBE2F8E580818E7F80830D
:1047E000E4E3F8E580818E7F80836AE170E082E017
:1047F0000E94DC188F3F19F08093FA0403C08FE108
:104800008093FA046BE170E082E00E94DC188F3F35
:1048100019F08093FB0403C08FE18093FB04E0EC6C
:10482000F4E08081826080838081806880838081E1
:104830008061808380E998E58683978380818062A8
:1048400080838FEF8093C504E8ECF4E08081816081
:1048500080831092C4588FB7F894EAECF8E5908101
:104860009F5F90838FBF6DDFCFBFDF91CF910895A2
:1048700080E008958093C30408958091C30408954F
:104880008091C0589091C158089580E090E00895BB
:10489000809316599093175960931859709319592A
:1048A0000895E82FEF70F0E0EE0FFF1F992787FDC6
:1048B00090958827990F881F9927E80FF91FEE0F09
:1048C000FF1FEE0FFF1FEE0FFF1FE057F74A81811A
:1048D000807C09F043C06370613029F010F480E4FB
:1048E00003C080E801C080EC40385105E1F050F48D
:1048F00040325105A1F04034510599F04031510545
:1049000061F419C0411592E0590789F04F3F93E0D7
:10491000590779F04115514041F020E00DC022E0E7
:104920000BC023E009C024E007C025E005C026E055
:1049300003C027E001C021E0118296E09083822B22
:1049400081838181807C803C21F4818187708730E4
:1049500039F081818062818381E0089580E008954B
:1049600081E00895E82FEF70F0E0EE0FFF1F992728
:1049700087FD90958827990F881F9927E80FF91FC1
:10498000EE0FFF1FEE0FFF1FEE0FFF1FE057F74A5E
:10499000818182FB882780F90895E82FEF70F0E08D
:1049A000EE0FFF1F282F332727FD30952227330FC7
:1049B000221F3327E20FF31FEE0FFF1FEE0FFF1F23
:1049C000EE0FFF1FE057F74A918192FF0EC09181D1
:1049D0009B7F918314DDFC01808180FF06C08E7F68
:1049E00080830780F085E02D199581E008957F92FE
:1049F0008F929F92AF92BF92CF92DF92EF92FF92EF
:104A00000F931F93CF93DF93982E862E5A0169013F
:104A1000F6DC7C01792C771C7724771CC92DCF70AC
:104A2000D0E0CC0FDD1FC70DD11DCC0FDD1FCC0F8B
:104A3000DD1FCC0FDD1FC057D74A8981807C09F468
:104A40004BC08981807C803C19F0898182FD46C001
:104A50008FB7F894F701908190FF03C08FBF712C3E
:104A60003EC0F7019081916090838FBFF701A182D2
:104A7000B282C382D4821582168207831087811086
:104A800006C091E0C114D10419F090E001C091E09A
:104A9000F701808190FB81F98B7F8083772019F06B
:104AA0001E821F8214C08981807C803C61F4CE010B
:104AB00082DCBC01C6015BD2892B29F0F701808121
:104AC0008E7F80830CC01A821B821E821F82892DDA
:104AD00029DD7724739403C0712C01C0712C872DBC
:104AE000DF91CF911F910F91FF90EF90DF90CF90CA
:104AF000BF90AF909F908F907F900895FF920F93FB
:104B00001F93CF93DF93182FF82EFF1CFF24FF1C59
:104B1000C82FCF70D0E0CC0FDD1FCF0DD11DCC0F33
:104B2000DD1FCC0FDD1FCC0FDD1FC057D74A67DC60
:104B3000DC01FE0102E005938C9180FF13C08E7FA3
:104B40008C931796ED91FC911897309759F0FF20B0
:104B500019F06E817F8102C06A817B81412F81E0E3
:104B600090E01995DF91CF911F910F91FF900895DB
:104B7000CF93C82FC3DFEC2FEF70F0E0EE0FFF1FD5
:104B80008C2F992787FD90958827990F881F992743
:104B9000E80FF91FEE0FFF1FEE0FFF1FEE0FFF1FB5
:104BA000E057F74A1182CF9108950F93E82FEF70E5
:104BB000F0E0EE0FFF1F282F332727FD3095222727
:104BC000330F221F3327E20FF31FEE0FFF1FEE0FED
:104BD000FF1FEE0FFF1FE057F74A9181946091830A
:104BE00001E006938BDF81E00F9108951F920F92F1
:104BF0000FB60F9211240BB60F920F932F933F9382
:104C00004F935F936F937F938F939F93AF93BF93D4
:104C1000EF93FF938091CB04882334F480E8809352
:104C2000CA040E94660891C08091CB0482FF23C011
:104C300084E08093CA048091985886FF86C0809152
:104C4000CC0481FD82C0F6DB81117FC08091815848
:104C5000909182588130910511F421DB76C0049740
:104C600009F073C0E9E9F8E504E00593E1E9F8E546
:104C700004E005936AC08091CB0481FF61C082E0AB
:104C80008093CA048091905886FF5FC08091CC04C5
:104C900081FD5BC0CFDB811158C08091815890911C
:104CA00082588230910559F484E090E080938158D5
:104CB00090938258E0E9F8E502E0069346C0039736
:104CC00009F043C0E9E9F8E504E00593E1E9F8E516
:104CD00004E005933AC080E18093CA0481E00EDFCE
:104CE00081E80CDF0E943F081092C304E1E9F8E577
:104CF000108296E09093905883E48083E9E9F8E588
:104D000010829093985880838DE398E5809394580F
:104D10009093955886DA19C08091CB0486FF06C01F
:104D200080E48093CA0480E05DDA0FC08091CB04F8
:104D300085FF0BC080E28093CA0481E053DA05C08E
:104D40008091CB0484FFE8CFC6CFFF91EF91BF9154
:104D5000AF919F918F917F916F915F914F913F9113
:104D60002F910F910F900BBE0F900FBE0F901F90C1
:104D700018951F920F920FB60F9211240BB60F9237
:104D80000F931F932F933F934F935F936F937F9353
:104D90008F939F93AF93BF93CF93DF93EF93FF9343
:104DA0008091CC0481FD03C045DB8111BAC082E053
:104DB0008093CC048091C5048195880FE0E9F8E5E3
:104DC000E81BF10920813181205938453695279516
:104DD0003695279536952795822F869520FF02C018
:104DE00090E801C090E0890FE82FEF70F0E0EE0F3F
:104DF000FF1F282F332727FD30952227330F221F2F
:104E00003327E20FF31FEE0FFF1FEE0FFF1FEE0F12
:104E1000FF1FE057F74A908195FF83C000E2069399
:104E200081117AC08091815890918258049719F429
:104E300047DAF7D976C0C0919258D09193588091B3
:104E400018599091195900917D5810917E589801E8
:104E50002C0F3D1F8217930718F4EC01C01BD10BD8
:104E60008091165990911759AE016DE378E5800F46
:104E7000911F51D10C0F1D1F00937D5810937E5828
:104E8000C034D10569F480917F5890918058800F8B
:104E9000911F20911459309115598217930788F06A
:104EA0000093185910931959E0911C59F0911D590C
:104EB000309729F01995811102C0E0D932C0EFD99D
:104EC00030C0809118599091195908171907F9F4B1
:104ED000E0911C59F0911D59309711F4CFD921C0A0
:104EE0001995811102C0CAD91CC020917F583091F8
:104EF000805880917D5890917E58820F931F8093A7
:104F00007F589093805810927D5810927E58E0E917
:104F1000F8E502E0069305C0803811F4D9D901C044
:104F200001DBFF91EF91DF91CF91BF91AF919F9105
:104F30008F917F916F915F914F913F912F911F9131
:104F40000F910F900BBE0F900FBE0F901F901895F2
:104F5000DB018F939F935AD0BF91AF91A29F800D99
:104F6000911DA39F900DB29F900D11240895AA1B2F
:104F7000BB1B51E107C0AA1FBB1FA617B70710F044
:104F8000A61BB70B881F991F5A95A9F78095909576
:104F9000BC01CD01089597FB072E16F4009406D0AE
:104FA00077FD08D0E4DF07FC05D03EF490958195AD
:104FB0009F4F0895709561957F4F0895A1E21A2E35
:104FC000AA1BBB1BFD010DC0AA1FBB1FEE1FFF1FAD
:104FD000A217B307E407F50720F0A21BB30BE40BFD
:104FE000F50B661F771F881F991F1A9469F7609544
:104FF0007095809590959B01AC01BD01CF010895FE
:10500000EE0FFF1F0590F491E02D19941ED0A59F7F
:10501000900DB49F900DA49F800D911D11240895B3
:105020002A153B054C055D056E057F058007910738
:1050300008950024A7FD00942A1730054005500567
:1050400060057005800590050895A29FB001B39F8B
:10505000C001A39F700D811D1124911DB29F700D81
:10506000811D1124911D08958F929F92AF92BF923E
:10507000CF92DF92EF92FF92CF93DF93EC016881A2
:1050800079818A819B81611571058105910521F4E2
:1050900064E279ED8BE597E02DE133EF41E050E0FC
:1050A000D5D149015A019B01AC01A7EAB1E4AEDFB9
:1050B0006B017C01ACEEB4EFA5019401E5D1C60E05
:1050C000D71EE81EF91EF7FE06C081E0C81AD108F7
:1050D000E10880E8F80AC882D982EA82FB82C60128
:1050E0009F77DF91CF91FF90EF90DF90CF90BF90AF
:1050F000AF909F908F900895B7CF80E090E2B4CFAB
:10510000A0E0B0E08093002090930120A0930220C3
:10511000B09303200895FB01DC0102C001900D92C1
:1051200041505040D8F70895DC0101C06D934150C3
:105130005040E0F708950F931F93CF93DF93EC0156
:105140008B01009731F46115710519F480E090E04E
:1051500037C06EE070E081E090E037D0FC0100974E
:10516000A9F380E883830115110571F00287138785
:1051700081E8838380911F5990912059892B21F4D4
:10518000E0931F59F09320592097C9F0C087D18729
:105190008381826083838091215990912259892B48
:1051A00071F4E0932159F093225980912359909101
:1051B0002459892B21F4E0932359F0932459CF01EA
:1051C000DF91CF911F910F9108950F931F93CF936C
:1051D000DF93869F8001879F100D969F100D1124ED
:1051E000C8010DD0EC01009721F0A80160E070E04B
:1051F0009BDFCE01DF91CF911F910F910895CF9347
:10520000DF938230910510F482E090E0E09127591D
:10521000F091285920E030E0A0E0B0E0309739F17B
:105220004081518148175907B8F04817590771F460
:1052300082819381109729F012968D939C931397F6
:105240002CC0809327599093285927C021153105E8
:1052500031F04217530718F0A901DB0101C0EF013B
:105260009A01BD01DF010280F381E02DD7CF211526
:105270003105F9F0281B390B2430310580F48A817F
:105280009B816115710521F0FB018283938304C02A
:105290008093275990932859FE01329644C0FE010D
:1052A000E20FF31F819391932250310928833983B0
:1052B0003AC02091255930912659232B41F4209151
:1052C00006203091072020932559309326592091AC
:1052D0000420309105202115310541F42DB73EB74A
:1052E0004091082050910920241B350BE09125594D
:1052F000F0912659E217F307A0F42E1B3F0B281755
:10530000390778F0AC014E5F5F4F2417350748F03E
:105310004E0F5F1F409325595093265981939193C7
:1053200002C0E0E0F0E0CF01DF91CF910895CF938C
:10533000DF93009709F487C0FC0132971282138231
:10534000C0912759D0912859209781F4208131812B
:10535000280F391F8091255990912659821793075C
:1053600079F5E0932559F09326596DC0DE0120E0D0
:1053700030E0AE17BF0750F412964D915C91139731
:105380009D014115510509F1DA01F3CFA283B383E1
:1053900040815181840F951F8A179B0771F48D916D
:1053A0009C911197840F951F02968083918312968A
:1053B0008D919C911397828393832115310529F454
:1053C000E0932759F09328593EC0D9011296ED93E6
:1053D000FC9313974D915D91A40FB51FEA17FB073E
:1053E00079F480819181840F951F0296D9018D9364
:1053F0009C9311978281938112968D939C9313971E
:10540000E0E0F0E08A819B81009719F0FE01EC0159
:10541000F9CFCE01029628813981820F931F209106
:105420002559309126592817390769F4309729F4FE
:10543000109227591092285902C012821382C093E9
:105440002559D0932659DF91CF910895052E97FBCA
:1054500016F400940FD057FD05D0B0DD07FC02D044
:1054600046F408C050954095309521953F4F4F4FD9
:105470005F4F089590958095709561957F4F8F4F00
:105480009F4F0895B7FFC2CDC1DD821B930B0895D6
:04549000F894FFCFBE
:1054940001000000000029592000AA05E604E103E8
:1054A400E303E304E603DB03F104E30300006E20FB
:1054B40022202A20262014200A2009024300020167
:1054C40000C032090400000102020100052400109A
:1054D4000104240202052406000105240103010736
:1054E40005820340001009040100020A00000007BD
:1054F400058102400000070502024000000012017D
:10550400000202000040EB034A21000101020001F5
:105514000003000000000000000000000000000084
:10552400000000004344430041544D454C20415386
:085534004600040309040814F9
:00000001FF
